:100000000C9463000C948B000C948B000C948B006C
:100010000C948B000C948B000C948B000C948B0034
:100020000C948B000C948B000C948B000C948B0024
:100030000C948B000C948B000C948B000C948B0014
:100040000C940E0C0C948B000C94DC0B0C94B60BE3
:100050000C948B000C948B000C948B000C948B00F4
:100060000C94580C0C948B00000000002500280014
:100070002B0000000000240027002A0000000000E0
:1000800023002600290004040404040404040202DA
:100090000202020203030303030301020408102007
:1000A0004080010204081020010204081020000012
:1000B0000008000201000003040700000000000027
:1000C0000000770D831011241FBECFEFD8E0DEBFF4
:1000D000CDBF23E0AEE8B1E001C01D92AA35B20762
:1000E000E1F711E0A0E0B1E0EAEAFAE202C005902F
:1000F0000D92AE38B107D9F710E0C2E6D0E004C0E7
:100100002197FE010E945013C136D107C9F70E9402
:10011000460E0C9448150C9400008CBD9DBD0895AE
:1001200008950895DC01ED91FC910190F081E02D9E
:100130000994AF92BF92CF92DF92EF92FF920F930A
:100140001F93CF93DF936C017B018B01040F151F6D
:10015000EB015E01AE18BF08C017D10759F06991D5
:10016000D601ED91FC910190F081E02DC601099539
:10017000892B79F7C501DF91CF911F910F91FF90E6
:10018000EF90DF90CF90BF90AF900895FC01538D1A
:10019000448D252F30E0842F90E0821B930B541761
:1001A00010F0CF96089501970895FC01918D828DEE
:1001B000981761F0A28DAE0FBF2FB11D5D968C9187
:1001C000928D9F5F9F73928F90E008958FEF9FEFC6
:1001D0000895FC01918D828D981731F0828DE80F82
:1001E000F11D858D90E008958FEF9FEF0895FC013C
:1001F000918D228D892F90E0805C9F4F821B910909
:100200008F73992708958AE592E00E94F70021E014
:10021000892B09F420E0822F089580E090E0892B5B
:1002200029F00E94030181110C9400000895FC0143
:10023000A48DA80FB92FB11DA35ABF4F2C91848D47
:1002400090E001968F739927848FA689B7892C93A4
:10025000A089B1898C91837080648C93938D848DF7
:10026000981306C00288F389E02D80818F7D8083FA
:100270000895EF92FF920F931F93CF93DF93EC01BA
:1002800081E0888F9B8D8C8D98131AC0E889F9893D
:10029000808185FF15C09FB7F894EE89FF89608340
:1002A000E889F98980818370806480839FBF81E0C1
:1002B00090E0DF91CF911F910F91FF90EF90089503
:1002C000F62E0B8D10E00F5F1F4F0F731127E02EDE
:1002D0008C8D8E110CC00FB607FCFACFE889F98916
:1002E000808185FFF5CFCE010E941701F1CFEB8D04
:1002F000EC0FFD2FF11DE35AFF4FF0829FB7F894EA
:100300000B8FEA89FB8980818062CFCFCF93DF9307
:10031000EC01888D8823B9F0AA89BB89E889F9891D
:100320008C9185FD03C0808186FD0DC00FB607FC52
:10033000F7CF8C9185FFF2CF808185FFEDCFCE0185
:100340000E941701E9CFDF91CF910895833081F0AA
:1003500028F4813099F08230A9F008958730A9F00F
:100360008830C9F08430B1F4809180008F7D03C063
:10037000809180008F7780938000089584B58F7777
:1003800084BD089584B58F7DFBCF8091B0008F77B9
:100390008093B00008958091B0008F7DF9CF1F93B6
:1003A000CF93DF93282F30E0F901E255FF4F84917E
:1003B000F901E656FF4FD491F901EA57FF4FC49176
:1003C000CC23A9F0162F81110E94A601EC2FF0E09A
:1003D000EE0FFF1FE859FF4FA591B4918FB7F89426
:1003E000EC91111108C0D095DE23DC938FBFDF9113
:1003F000CF911F910895DE2BF8CFCF92DF92EF922D
:10040000FF920F931F93CF93DF93909131039F3F00
:1004100081F48EBD00000DB407FEFDCFFEB48F2D1C
:10042000DF91CF911F910F91FF90EF90DF90CF90D0
:100430000895D82EF12CC7E0D0E001E010E0FF0CC9
:1004400060E0809131030E94CF01B8010C2E01C001
:10045000660F0A94EAF76D2180912F030E94CF0165
:1004600061E0809131030E94CF012091300330E0A0
:10047000F901E255FF4F8491F901E656FF4FE490F0
:10048000F901EA57FF4FC490CC2081F081110E94FE
:10049000A601EC2DF0E0EE0FFF1FE458FF4FA591F1
:1004A000B491EC91EE2211F06894F0F8219708F0E5
:1004B000C6CFB5CFCF93DF9390E0FC01E656FF4F58
:1004C00024918A579F4FFC0184918823D1F090E0BA
:1004D000880F991FFC01EE58FF4FA591B491FC01C4
:1004E000E859FF4FC591D49161110EC09FB7F894A0
:1004F0008C91E22FE0958E238C932881E223E88370
:100500009FBFDF91CF9108958FB7F894EC91E22BC4
:10051000EC938FBFF6CF3FB7F89480913A02909159
:100520003B02A0913C02B0913D0226B5A89B05C0BC
:100530002F3F19F00196A11DB11D3FBFBA2FA92F62
:10054000982F8827BC01CD01620F711D811D911D5F
:1005500042E0660F771F881F991F4A95D1F70895CB
:100560008F929F92AF92BF92CF92DF92EF92FF92C3
:100570004B015C010E948B026B017C010E948B028B
:100580006C197D098E099F09683E734081059105AC
:10059000A8F321E0821A9108A108B10888EEC80EDC
:1005A00083E0D81EE11CF11C81149104A104B10464
:1005B00029F7FF90EF90DF90CF90BF90AF909F9082
:1005C0008F900895089585ED8093BC008091BC00C4
:1005D00084FDFCCF1092530208952091EE01260F66
:1005E0003327331F21323105ECF420915302FC01F3
:1005F00090E080E0243069F082E00895A091EE015F
:100600002191AC0142535E4FA40FB52FB11D2C9325
:100610000196861798F38091EE01680F6093EE01C2
:1006200080E0089581E008950895E0915502809159
:100630005402E81730F4F0E0E255FE4F808190E07C
:1006400008958FEF9FEF0895909155028091540285
:100650002FEF3FEF981748F4E92FF0E0E255FE4FF7
:10066000208130E09F5F90935502C90108958091E9
:10067000540290915502891B990B0895CF92DF92F5
:10068000EF92FF920F931F93CF93DF937C01CB01E7
:100690008A0120915902222389F0EB016B01C40EDB
:1006A000D51ECC15DD0569F06991D701ED91FC915E
:1006B0000190F081E02DC7010995F3CF642F0E94CE
:1006C000ED02C801DF91CF911F910F91FF90EF9044
:1006D000DF90CF900895CF93DF931F92CDB7DEB711
:1006E0006983209159022223F9F020915602203289
:1006F00058F021E030E0FC013383228390E080E079
:100700000F90DF91CF91089580915702E82FF0E08C
:10071000E257FE4F998190838F5F809357028093B9
:10072000560281E090E0ECCF61E0CE0101960E949C
:10073000ED02F7CF2091560281E0213208F044C04B
:10074000809153028111FCCF8091580292E09093E6
:10075000530291E0909352029FEF909311021092F6
:10076000330220933202AEE8B1E0E2E1F2E090E041
:10077000291331C01092340290913402880F892BD2
:100780008093340280915102813049F510925102D8
:10079000809134028093BB008091BC0083FDF8CF30
:1007A00085EC8093BC00809153028230E1F380910C
:1007B00011028F3FB1F0809111028032A1F080913F
:1007C0001102803391F084E0109257021092560289
:1007D0001092590208953D9131939F5FC9CF85EEE4
:1007E000E0CF80E0F1CF82E0EFCF83E0EDCF90E08B
:1007F00080E008950895CF93DF93D82FC62F80917E
:100800002E038F3F59F5809121039091220320916F
:10081000250331E030935902209358021092570279
:1008200010925602DC01ED91FC910190F081E02DD7
:100830006D2F09958091210390912203DC01ED91A8
:10084000FC910190F081E02D6C2F0995809121039E
:1008500090912203DF91CF910C949A038091310300
:100860008F3F21F482E591E00E948D0060E080914D
:100870002E030E94CF018D2F8F770E94FD018C2FB8
:100880000E94FD0161E080912E03DF91CF910C94D5
:10089000CF01CF93DF93EC0160E08E810E94CF0106
:1008A00061E08E810E94CF0160E08E810E94CF01C5
:1008B0008BE891E00197F1F7DF91CF910895CF9206
:1008C000DF92EF92FF920F931F93CF93DF936C0110
:1008D0007C0187E0E80EF11CD0E0C0E0062F10E0BC
:1008E000B8010C2E02C0759567950A94E2F7617005
:1008F000F70181917F010E94CF012196C430D1057B
:1009000079F7C601DF91CF911F910F91FF90EF9082
:10091000DF90CF900C944904CF92DF92EF92FF9238
:100920000F931F93CF93DF93EC01F62E642F8C81EE
:100930000E94CF018D818F3F19F060E00E94CF01AE
:100940000F2D10E08F8584FF25C06E0187E0C80E53
:10095000D11CF12CE12CB8010E2C02C075956795C5
:100960000A94E2F76170F60181916F010E94CF0154
:10097000FFEFEF1AFF0A88E0E816F10461F7CE01F5
:10098000DF91CF911F910F91FF90EF90DF90CF906B
:100990000C944904B80184E0759567958A95E1F750
:1009A000CE010E945F046F2DCE01DF91CF911F9188
:1009B0000F91FF90EF90DF90CF900C945F0440E098
:1009C000682F83E093E00C948C04CF93DF93613025
:1009D00029F090911203986090931203609316038C
:1009E0001092170390E49093180380931903805C8E
:1009F00080931A0361E0809107030E945A0280915C
:100A000008038F3F19F061E00E945A0261E0809173
:100A100009030E945A02C3E0D3E09E0123503340F1
:100A20008091120384FD0BC084E090E0219628178A
:100A3000390744F461E08E810E945A02EECF88E0CB
:100A400090E0F4CF8BE39DE00197F1F760E08091B7
:100A500007030E94CF0160E0809109030E94CF014B
:100A6000809108038F3F19F060E00E94CF018091D0
:100A7000120384FD39C063E083E093E00E945F04C9
:100A8000CBE4D6E4CE010197F1F763E083E093E095
:100A90000E945F042197F1F763E083E093E00E94F6
:100AA0005F0483E592E00197F1F762E083E093E071
:100AB0000E945F048091120380620E94DF0484E040
:100AC000809313038CE00E94DF0481E00E94DF0426
:100AD0008BE39FE10197F1F782E08093140386E0B6
:100AE000DF91CF910C94DF0480620E94DF048BE4DD
:100AF00096E40197F1F78091120380620E94DF046F
:100B000083E592E00197F1F78091120380620E94E1
:100B1000DF04D0CF90911603891710F08FEF890F63
:100B2000E82FF0E0ED5FFC4F848980680C94DF04CF
:100B300041E00E948C0481E090E00895809153028E
:100B40008111FCCF81E080935302809352029FEF8A
:100B50009093110210923302940F9093320280937B
:100B6000340280913402660F682B609334028091C6
:100B70005102813019F51092510280913402809314
:100B8000BB008091BC0083FDF8CF85EC8093BC0056
:100B9000809153028130E1F380913302841710F485
:100BA00040913302A2E1B2E0EEEAF1E080E084138A
:100BB00007C01092550280935402089585EEE6CF47
:100BC0009D9191938F5FF3CFCF93C82F80912E0388
:100BD0008F3FA9F580912103909122032091250355
:100BE00031E030935902209358021092570210922C
:100BF0005602DC01ED91FC910190F081E02D6C2F0B
:100C0000099580912103909122030E949A0341E06B
:100C10006091250380912103909122030E949E05FB
:100C20008091210390912203DC01ED91FC910284DB
:100C3000F385E02D0995C82F8C2FCF9108958091D1
:100C400031038F3F21F482E591E00E948D0060E046
:100C500080912E030E94CF018C2F0E94FD0180E025
:100C60000E94FD01C82F61E080912E030E94CF01F8
:100C7000E3CFCF93DF93C82F80912E038F3F09F0EE
:100C800046C080912103909122032091250331E0F9
:100C90003093590220935802109257021092560234
:100CA000DC01ED91FC910190F081E02D6C2F099514
:100CB00080912103909122030E949A0342E0609167
:100CC000250380912103909122030E949E0580912B
:100CD000210390912203DC01ED91FC910284F385C4
:100CE000E02D0995C82F8091210390912203DC010A
:100CF000ED91FC910284F385E02D099520E03C2FD5
:100D0000E901C82BD92BCE01DF91CF9108958091B5
:100D100031038F3F21F482E591E00E948D0060E075
:100D200080912E030E94CF018C2F0E94FD0180E054
:100D30000E94FD01C82F80E00E94FD01DC2FC82F1A
:100D400061E080912E030E94CF01DDCF0E94390621
:100D50009827892798270895CF93DF9380912E03B2
:100D60008F3F09F05BC0109255021092540210920E
:100D70005702109256021092530281E08093520261
:100D80001092510261E082E10E94CF0161E083E1B3
:100D90000E94CF018091B9008E7F8093B90080912D
:100DA000B9008D7F8093B90088E48093B80085E412
:100DB0008093BC0080E990E09093500280934F02B2
:100DC00081E990E090934E0280934D0280ED0E9465
:100DD000E40590E0B0E0A0E0809326039093270321
:100DE000A0932803B093290380369105A105B1058E
:100DF00009F04CC166EB80EE0E94FB036CE271E0EF
:100E000080E090E00E94B00283EF0E94E40580FF42
:100E100054C064E670E080E090E0F4CF61E00E94AE
:100E2000CF0161E080912E030E945A02809131032C
:100E30008F3F09F034C0CFB7F89480914C028111F4
:100E400027C0E0E9F0E08491E4EAF0E09491E82F33
:100E5000F0E0EE0FFF1FEE58FF4FA591B491EC911B
:100E6000E92321F461E08AE00E94CF0161E08AE099
:100E70000E945A028CB580618CBD8CB580648CBD9B
:100E800061E08DE00E945A0261E08BE00E945A020C
:100E900080914C028F5F80934C02CFBF97CF61E06F
:100EA0000E945A0261E080912F030E945A0260E082
:100EB000809130030E945A0289CF88E80E94A606DA
:100EC00090933303809332038AE80E94A60690939E
:100ED0003503809334038CE80E94A6069093370371
:100EE000809336038EE80E94A60690933903809380
:100EF000380380E90E94A60690933B0380933A034F
:100F000082E90E94A60690933D0380933C0384E906
:100F10000E94A60690933F0380933E0386E90E94B9
:100F2000A606909341038093400388E90E94A60699
:100F300090934303809342038AE90E94A60690930C
:100F40004503809344038CE90E94A60690934703CF
:100F5000809346038EE90E94A606909349038093EE
:100F6000480381EA0E94E40580934A0381EE0E94CF
:100F7000A60690934C0380934B0383EE0E94E405F6
:100F800080934D0384EE0E94E405C82F85EE0E94F5
:100F9000E40590E1C99F900111248F70282B3093B4
:100FA0004F0320934E0386EE0E94E405C82F85EE82
:100FB0000E94E40590E1C99FE001112490E024E043
:100FC000959587952A95E1F78C2B9D2B909351034E
:100FD0008093500387EE0E94E405809352038DEEC8
:100FE00080935403809155038F71806A80935503D9
:100FF00080915303807C8093530360E084EF0E94D0
:10100000FB036091550362956695677082EF0E94BD
:10101000FB0380915303682F677090E2699FB001D2
:101020001124282F269526952695277094E0299F30
:1010300090011124622B87FB882780F9682B85EFAC
:101040000E94FB0380915403682F677090E2699FB0
:10105000B0011124282F269526952695277094E017
:10106000299F90011124622B829586958695837025
:10107000682B84EF0E94FB0364E670E080E090E060
:101080000E94B00281E0DF91CF91089580E0FBCF14
:101090008F929F92AF92BF92CF92DF92EF92FF9288
:1010A00080912E038F3F09F0E9C080912103909138
:1010B00022032091250331E03093590220935802F6
:1010C0001092570210925602DC01ED91FC910190B2
:1010D000F081E02D6AEF0995809121039091220320
:1010E0000E949A0343E0609125038091210390912F
:1010F00022030E949E058091210390912203DC012E
:10110000ED91FC910284F385E02D09954C01990F36
:10111000AA08BB08BA2CA92C982C882480912103FA
:1011200090912203DC01ED91FC910284F385E02D86
:101130000995092E000CAA0BBB0B882A992AAA2A0A
:10114000BB2ABA2CA92C982C882480912103909139
:101150002203DC01ED91FC910284F385E02D0995D9
:10116000092E000CAA0BBB0B6C017D01C828D928E5
:10117000EA28FB2860E070E080EC9FE7C114D1040E
:10118000B0E8EB06F10409F470C08091320390914D
:101190003303B0E0A0E08D2C9E2CAF2CBB24A7FC29
:1011A000BA94881A990AAA0ABB0A37E0F594E79418
:1011B000D794C7943A95D1F7880F991FAA1FBB1FE0
:1011C000A7019601281B390B4A0B5B0BA091340336
:1011D000B09135030E9448136B017C015BE0F594EC
:1011E000E794D794C7945A95D1F7A5019401C50106
:1011F000B4010E9416139B01AC016CE05595479514
:10120000379527956A95D1F7A0913603B0913703AA
:101210000E9448139B01AC017EE055954795379598
:1012200027957A95D1F72C0D3D1D4E1D5F1D2093FE
:101230002A0330932B0340932C0350932D03A5E0F6
:10124000B0E00E94AD1160587F4F8F4F9F4F672FC6
:10125000782F892F992787FD9A950E94901020E07A
:1012600030E048EC52E40E946B12FF90EF90DF9068
:10127000CF90BF90AF909F908F9008958091310351
:101280008F3F21F482E591E00E948D0060E0809123
:101290002E030E94CF018AEF0E94FD0180E00E9490
:1012A000FD0190E0B0E0A0E0CC24D82EE92EFA2E8B
:1012B00080E00E94FD01C82AFE2CED2CDC2CCC2401
:1012C00080E00E94FD01C82A61E080912E030E9407
:1012D000CF0150CF4F925F926F927F928F929F92E9
:1012E000AF92BF92CF92DF92EF92FF920E94480896
:1012F0008DEF0E943906B0E0A0E0811520E892074A
:10130000A105B10509F4D7C080902A0390902B0362
:10131000A0902C03B0902D032CE2921A21E0A20A97
:10132000B1086C017D013EE0CC0CDD1CEE1CFF1C05
:101330003A95D1F780914E0390914F03092E000CFE
:10134000AA0BBB0B44E1880F991FAA1FBB1F4A952C
:10135000D1F7C81AD90AEA0AFB0AA0915003B09142
:101360005103A50194010E944813C61AD70AE80A3E
:10137000F90A80E4D80EE11CF11C6FE0F594E794C3
:10138000D794C7946A95D1F7A0914D03B0E00E941D
:10139000AD112B013C017BE0759467945794479401
:1013A0007A95D1F720E8520E611C711CA09152036E
:1013B0000A2E000CBB0B94010E944813EAE095959D
:1013C000879577956795EA95D1F7A30192010E94D9
:1013D00016139B01AC01FAE0559547953795279573
:1013E000FA95D1F7405E5F4FA0914B03B0914C034B
:1013F0000E944813705E8F4F9F4FAEE09595879582
:1014000077956795AA95D1F7A70196010E941613C3
:101410006B017C01BFE09595879577956795BA95A7
:10142000D1F79B01AC010E9416139B01AC0187E030
:1014300055954795379527958A95D1F7A0914A03F9
:10144000B0E00E94AD1124E095958795779567955A
:101450002A95D1F7C61AD70AE80AF90AF7FE03C097
:10146000C12CD12C7601C701B6016130710581050F
:1014700029E1920724F060E070E080E099E12CE03F
:1014800095958795779567952A95D1F70E94901045
:1014900020E030E040E85AE30E94EF10FF90EF9028
:1014A000DF90CF90BF90AF909F908F907F906F9084
:1014B0005F904F90089560E070E080EC9FE7EECF82
:1014C000FB0101900020E9F73197AF01461B570B54
:1014D000DC01ED91FC910280F381E02D09948F9263
:1014E0009F92AF92BF92EF92FF920F931F93CF9371
:1014F000DF93CDB7DEB7A1970FB6F894DEBF0FBE6E
:10150000CDBF7C01FA01CB0119A2223008F42AE0F8
:101510008E010F5D1F4F822E912CB12CA12CBF018B
:10152000A50194010E942613F901CA016A300CF545
:10153000605DD8016E938D01232B242B252B79F729
:1015400090E080E0109721F0BD01C7010E94600A81
:10155000A1960FB6F894DEBF0FBECDBFDF91CF913D
:101560001F910F91FF90EF90BF90AF909F908F9041
:101570000895695CDECF2F923F924F925F926F92F7
:101580007F928F929F92AF92BF92CF92DF92EF9213
:10159000FF921F93CF93DF93EC016A017B01722EC0
:1015A000AB019601CB01B6010E94111366E371E015
:1015B000811126C046015701E894B7F82FEF3FEF9D
:1015C0004FE75FE7C501B4010E94111381110CC000
:1015D0002FEF3FEF4FE75FE7C501B4010E9489108D
:1015E0006AE371E0181664F02FEF3FEF4FE75FE416
:1015F000C701B6010E940C131816B4F46EE371E033
:10160000CE01DF91CF911F91FF90EF90DF90CF90AF
:10161000BF90AF909F908F907F906F905F904F9012
:101620003F902F900C94600A2FEF3FEF4FE75FEC55
:10163000C701B6010E94891087FDE0CF20E030E0AD
:10164000A901C701B6010E948910312C212C87FF06
:1016500009C06DE2CE010E9492001C01F7FAF094DD
:10166000F7F8F09410E060E070E080E09FE371161E
:1016700041F020E030E040E251E40E946B121F5F35
:10168000F6CFA70196010E94FF112B013C010E9499
:10169000DD124B015C012AE0BC01A401CE010E94D5
:1016A0006F0A7C01E20CF31C1123C1F1C501B401E6
:1016B0000E948E109B01AC01C301B2010E94FE1179
:1016C0004B015C016EE2CE010E949200E80EF91E11
:1016D000115020F120E030E040E251E4C501B401B6
:1016E0000E94EF102B013C010E94DD124B01B12C36
:1016F000A12C2AE0B501A401CE010E946F0AE80ED8
:10170000F91EC501B4010E948E109B01AC01C301FA
:10171000B2010E94FE114B015C01DACFC701DF91DB
:10172000CF911F91FF90EF90DF90CF90BF90AF903F
:101730009F908F907F906F905F904F903F902F90F1
:101740000895CF93DF93AB01BC0122E08AE592E0DC
:101750000E94BB0AEC0162E471E08AE592E00E941B
:10176000600A8C0F9D1FDF91CF9108951F920F92F9
:101770000FB60F9211242F933F934F935F936F9364
:101780007F938F939F93AF93BF93EF93FF938AE5DC
:1017900092E00E941701FF91EF91BF91AF919F914D
:1017A0008F917F916F915F914F913F912F910F900A
:1017B0000FBE0F901F9018951F920F920FB60F92A9
:1017C00011242F938F939F93EF93FF93E0916A02DD
:1017D000F0916B028081E0917002F091710282FDC4
:1017E0001BC09081809173028F5F8F732091740270
:1017F000821741F0E0917302F0E0E65AFD4F958FB9
:1018000080937302FF91EF919F918F912F910F9091
:101810000FBE0F901F9018958081F4CF1F920F92EA
:101820000FB60F9211242F933F938F939F93AF93F3
:10183000BF938091360290913702A0913802B09107
:1018400039023091350223E0230F2D3758F50196E8
:10185000A11DB11D2093350280933602909337026B
:10186000A0933802B093390280913A0290913B02E2
:10187000A0913C02B0913D020196A11DB11D809343
:101880003A0290933B02A0933C02B0933D02BF9179
:10189000AF919F918F913F912F910F900FBE0F901D
:1018A0001F90189526E8230F0296A11DB11DD2CFD7
:1018B0001F920F920FB60F9211242F933F934F93C5
:1018C0005F936F937F938F939F93AF93BF93EF93A8
:1018D000FF938091B900887F803609F44AC0F0F503
:1018E000883209F4A7C018F5803109F49BC0B8F418
:1018F000882309F4F9C0883009F494C0FF91EF916E
:10190000BF91AF919F918F917F916F915F914F9117
:101910003F912F910F900FBE0F901F901895883117
:1019200009F488C0803251F78093110214C08034CA
:1019300009F49DC040F48033B9F38833F9F68093FD
:10194000110285ECB0C0803509F485C0883509F4F2
:1019500096C0883499F60E94E302D0CF883909F402
:101960008CC038F5883729F050F4883611F080376C
:1019700029F683E0809353021092100257C08838F2
:1019800009F47BC0803919F0803809F0B7CF809115
:101990001002803208F071C0E091100281E08E0FD9
:1019A000809310028091BB00F0E0E051FE4F8083F5
:1019B0003DC0803B39F0E0F4803A09F479C0883AC0
:1019C00009F09CCF84E0809353021092EF011092B3
:1019D000EE01E0914F02F091500209958091EE01E5
:1019E00081110FC081E08093EE011092CE0109C0F9
:1019F000803C09F4A6CF883C09F4A3CF883B09F0CA
:101A00007DCFE091EF0181E08E0F8093EF01F0E058
:101A1000E253FE4F80818093BB009091EF01809153
:101A2000EE0129C0809134028093BB0085EC809345
:101A3000BC0064CF9091330280913202981758F520
:101A4000E091330281E08E0F80933302F0E0EE5E8E
:101A5000FD4F8081E9CFE091330281E08E0F8093CA
:101A600033028091BB00F0E0EE5EFD4F80839091E9
:101A70003302809132029817C8F285E8D8CFE091FE
:101A8000330281E08E0F809333028091BB00F0E03F
:101A9000EE5EFD4F80838091520281115CCF81E028
:101AA0008093510284EA8093BC001092530226CFA7
:101AB00085EC8093BC00109253028091100280321A
:101AC00030F4E0911002F0E0E051FE4F108260919E
:101AD000100270E0E0914D02F0914E0280EF91E033
:101AE0000995109210020ACF1092110234CF109271
:101AF0005D0210925C0288EE93E0A0E0B0E080937B
:101B00005E0290935F02A0936002B09361022AE0AC
:101B100031E030935B0220935A0225EC30E03093A1
:101B200067022093660224EC30E030936902209330
:101B3000680220EC30E030936B0220936A0221ECC3
:101B400030E030936D0220936C0222EC30E0309351
:101B50006F0220936E0226EC30E0309371022093E6
:101B60007002109273021092740210927502109219
:101B700076021092FA021092F9028093FB0290937F
:101B8000FC02A093FD02B093FE028CE191E09093E1
:101B9000F8028093F7028FEF80932E0380932F0338
:101BA000809330038093310310921C0310921B0327
:101BB00010921E0310921D031092200310921F0317
:101BC00061E070E090E080E00E947B140097E9F013
:101BD00090931C0380931B0310921E0310921D030D
:101BE00020911F0330912003232B11F4FC0110825C
:101BF0001092200310921F0364E471E080911B0394
:101C000090911C030E94411514C080911B03909178
:101C10001C03009711F00E94F21310921C03109203
:101C20001B031092200310921F0310921E031092A8
:101C30001D0310920603109205038EE291E090932B
:101C400004038093030387E0809307038FEF80935F
:101C5000080386E08093090385E080930A0384E00B
:101C600080930B0383E080930C0382E080930D0349
:101C700010920E0310920F03109210031092110392
:101C80001092120361E080E10C94E504789484B52D
:101C9000826084BD84B5816084BD85B5826085BD68
:101CA00085B5816085BD80916E00816080936E00F6
:101CB00010928100809181008260809381008091E8
:101CC0008100816080938100809180008160809399
:101CD00080008091B10084608093B1008091B00059
:101CE00081608093B00080917A00846080937A0054
:101CF00080917A00826080937A0080917A0081607E
:101D000080937A0080917A00806880937A001092A4
:101D1000C100E0916A02F0916B0282E08083E09161
:101D20006602F09167021082E0916802F091690208
:101D30008FEC808310927202E0916E02F0916F023C
:101D400086E08083E0916C02F0916D028081806179
:101D50008083E0916C02F0916D02808188608083C5
:101D6000E0916C02F0916D02808180688083E09147
:101D70006C02F0916D0280818F7D808361E088E04C
:101D80000E945A0261E089E00E945A0261E08AE002
:101D90000E945A0261E08BE00E945A0261E088E0F2
:101DA0000E94CF0161E089E00E94CF0161E08AE0FA
:101DB0000E94CF0161E08BE00E94CF0164E084E1EA
:101DC0000E94E50487E78093250387EF92E09093D4
:101DD0002203809321030E94AC06882309F43CC1AE
:101DE00090E4F92EC0E0D0E0EE24E39425E0D22E7A
:101DF00001E010E085E6A82EB12CF0927C008091E5
:101E00007A00806480937A0080917A0086FDFCCF0E
:101E10008091780060917900762F682F072E000C52
:101E2000880B990B0E949010209148023091490232
:101E300040914A0250914B020E94FF112B013C013C
:101E4000409248025092490260924A0270924B02BC
:101E500061E070E080E090E00E94B00281E0A81AAA
:101E6000B10859F620E030E048EC52E4C301B20179
:101E70000E946B12609348027093490280934A0259
:101E800090934B0280E00E948A0566E671E083E051
:101E900093E00E94600A0E944808AB01BC0122E066
:101EA00083E093E00E94BB0A6CE771E083E093E07B
:101EB0000E94600A6FED83E093E00E9492006DE65D
:101EC00071E083E093E00E94600A81E00E948A054D
:101ED0006FE671E083E093E00E94600A0E946A0965
:101EE000AB01BC0122E083E093E00E94BB0A6CE7F7
:101EF00071E083E093E00E94600A65E771E083E0AF
:101F000093E00E94600A82E00E948A0567E771E020
:101F100083E093E00E94600A409148025091490298
:101F200060914A0270914B0222E083E093E00E94AC
:101F3000BB0A83E00E948A056091440283E093E03B
:101F40000E9492006091450283E093E00E9492001B
:101F50006EE771E083E093E00E94600A80904302A4
:101F6000082C000C9908AA08BB082AE0B501A401B6
:101F7000B7FE0DC06DE283E093E00E94920044271B
:101F80005527BA01481959096A097B092AE083E0F3
:101F900093E00E946F0A0E9448084B015C01809107
:101FA000420260914302062E000C770B680F711DF0
:101FB00087FD7A95072E000C880B990B0E949010D4
:101FC0009B01AC01C501B4010E940C1360E087FFC6
:101FD0000AC00E94480820E030E0A9010E94891050
:101FE000181624F061E088E00E94CF01809143023E
:101FF00060E0813309F061E089E00E94CF018091C7
:102000004002909141020097D9F50E9448080E9431
:10201000A10B0E946A090E94A10B60914802709175
:10202000490280914A0290914B020E94A10B1093A9
:1020300041020093400268E873E180E090E00E9472
:10204000B002209709F4D6CE0E940301882309F438
:10205000D1CE0E940000CECE86E7809325030E9459
:10206000AC068111BDCE65E471E08AE592E00E9484
:10207000600A62E471E08AE592E00E94600AFFCFA4
:102080000197C9F667E871E08AE592E00E94600A6C
:1020900062E471E08AE592E00E94600A8AE592E0DB
:1020A0000E94F700181619064CF58AE592E00E9486
:1020B000D50090913F029923E1F090913E02E92FE3
:1020C000F0E0EE5BFD4F8E3351F080839F5F9630E2
:1020D00018F0D0923E02E2CF90933E02DFCF108202
:1020E00010923F0210923E02109241021092400262
:1020F000D5CF8C33C9F7E0923F02D0CF1092410286
:102100001092400298CF80911B0390911C030C9475
:10211000F2130E94CB1008F481E00895E89409C0FE
:1021200097FB3EF490958095709561957F4F8F4F0A
:102130009F4F9923A9F0F92F96E9BB279395F69520
:10214000879577956795B795F111F8CFFAF4BB0F9E
:1021500011F460FF1BC06F5F7F4F8F4F9F4F16C002
:10216000882311F096E911C0772321F09EE8872F8C
:10217000762F05C0662371F096E8862F70E060E048
:102180002AF09A95660F771F881FDAF7880F9695C1
:10219000879597F90895990F0008550FAA0BE0E865
:1021A000FEEF16161706E807F907C0F01216130619
:1021B000E407F50798F0621B730B840B950B39F459
:1021C0000A2661F0232B242B252B21F408950A26BF
:1021D00009F4A140A6958FEF811D811D08950E94ED
:1021E00002110C9473110E94651138F00E946C1159
:1021F00020F0952311F00C945C110C9462111124C1
:102200000C94A7110E94841170F3959FC1F3950F50
:1022100050E0551F629FF001729FBB27F00DB11D6A
:10222000639FAA27F00DB11DAA1F649F6627B00DFA
:10223000A11D661F829F2227B00DA11D621F739FE3
:10224000B00DA11D621F839FA00D611D221F749FF1
:102250003327A00D611D231F849F600D211D822F38
:10226000762F6A2F11249F5750409AF0F1F088235F
:102270004AF0EE0FFF1FBB1F661F771F881F91508C
:102280005040A9F79E3F510580F00C945C110C94CE
:10229000A7115F3FE4F3983ED4F386957795679551
:1022A000B795F795E7959F5FC1F7FE2B880F911DB6
:1022B0009695879597F9089597F99F6780E870E05C
:1022C00060E008959FEF80EC089500240A941616AC
:1022D000170618060906089500240A941216130614
:1022E000140605060895092E0394000C11F48823A2
:1022F00052F0BB0F40F4BF2B11F460FF04C06F5FBE
:102300007F4F8F4F9F4F089557FD9058440F551F93
:1023100059F05F3F71F04795880F97FB991F61F067
:102320009F3F79F087950895121613061406551FDE
:10233000F2CF4695F1DF08C0161617061806991F4A
:10234000F1CF86957105610508940895E894BB273F
:1023500066277727CB0197F908950E94EF11A59F73
:10236000900DB49F900DA49F800D911D1124089590
:102370002F923F924F925F926F927F928F929F9295
:10238000AF92BF92CF92DF92EF92FF920F931F9383
:10239000CF93DF93CDB7DEB7CA1BDB0B0FB6F89434
:1023A000DEBF0FBECDBF09942A88398848885F8474
:1023B0006E847D848C849B84AA84B984C884DF80E5
:1023C000EE80FD800C811B81AA81B981CE0FD11DC9
:1023D0000FB6F894DEBF0FBECDBFED010895A29FEA
:1023E000B001B39FC001A39F700D811D1124911DE9
:1023F000B29F700D811D1124911D08955058BB2767
:10240000AA270E9416120C9473110E94651138F0CD
:102410000E946C1120F039F49F3F19F426F40C94BB
:1024200062110EF4E095E7FB0C945C11E92F0E9419
:10243000841158F3BA17620773078407950720F0D1
:1024400079F4A6F50C94A6110EF4E0950B2EBA2F94
:10245000A02D0B01B90190010C01CA01A0011124AA
:10246000FF27591B99F0593F50F4503E68F11A1656
:10247000F040A22F232F342F4427585FF3CF4695E7
:1024800037952795A795F0405395C9F77EF41F1609
:10249000BA0B620B730B840BBAF09150A1F0FF0FD3
:1024A000BB1F661F771F881FC2F70EC0BA0F621FBF
:1024B000731F841F48F4879577956795B795F795AF
:1024C0009E3F08F0B0CF9395880F08F09927EE0F44
:1024D0009795879508950E947F120C9473110E941E
:1024E0006C1158F00E94651140F029F45F3F29F00B
:1024F0000C945C1151110C94A7110C9462110E9460
:10250000841168F39923B1F3552391F3951B550B6F
:10251000BB27AA2762177307840738F09F5F5F4FB6
:10252000220F331F441FAA1FA9F335D00E2E3AF0F5
:10253000E0E832D091505040E695001CCAF72BD00D
:10254000FE2F29D0660F771F881FBB1F261737075E
:102550004807AB07B0E809F0BB0B802DBF01FF2790
:1025600093585F4F3AF09E3F510578F00C945C1100
:102570000C94A7115F3FE4F3983ED4F386957795CA
:102580006795B795F7959F5FC9F7880F911D969549
:10259000879597F90895E1E0660F771F881FBB1FA5
:1025A000621773078407BA0720F0621B730B840B52
:1025B000BA0BEE1F88F7E09508950E948C1188F001
:1025C0009F5798F0B92F9927B751B0F0E1F0660FF7
:1025D000771F881F991F1AF0BA95C9F714C0B13038
:1025E00091F00E94A611B1E008950C94A611672FF6
:1025F000782F8827B85F39F0B93FCCF38695779567
:102600006795B395D9F73EF490958095709561954F
:102610007F4F8F4F9F4F08950E94CB1008F48FEF8C
:1026200008950E94CB10880B990B0895DB018F93BE
:102630009F930E94AD11BF91AF91A29F800D911DFC
:10264000A39F900DB29F900D11240895A1E21A2E20
:10265000AA1BBB1BFD010DC0AA1FBB1FEE1FFF1F46
:10266000A217B307E407F50720F0A21BB30BE40B96
:10267000F50B661F771F881F991F1A9469F76095DD
:102680007095809590959B01AC01BD01CF01089597
:10269000B7FF0C94AD110E94AD11821B930B0895EE
:1026A000EE0FFF1F0590F491E02D09940F931F93F7
:1026B000CF93DF938230910510F482E090E0E091B7
:1026C0005803F091590330E020E0B0E0A0E03097EB
:1026D00099F42115310509F44AC0281B390B24301F
:1026E0003105D8F58A819B816115710589F1FB015E
:1026F00093838283FE0111C0408151810281138145
:1027000048175907E0F04817590799F4109761F0F6
:1027100012960C93129713961C933296CF01DF9169
:10272000CF911F910F91089500935803109359036F
:10273000F4CF2115310551F04217530738F0A901A4
:10274000DB019A01BD01DF01F801C1CFEF01F9CF33
:102750009093590380935803CDCFFE01E20FF31FEE
:10276000819391932250310939832883D7CF2091C7
:10277000560330915703232B41F4209102013091ED
:1027800003013093570320935603209100013091A9
:1027900001012115310541F42DB73EB740910401E7
:1027A00050910501241B350BE0915603F09157031E
:1027B000E217F307A0F42E1B3F0B2817390778F018
:1027C000AC014E5F5F4F2417350748F04E0F5F1F77
:1027D0005093570340935603819391939FCFF0E01A
:1027E000E0E09CCFCF93DF930097E9F0FC013297B4
:1027F00013821282A0915803B0915903ED0130E089
:1028000020E01097A1F420813181820F931F209145
:102810005603309157032817390709F061C0F09328
:102820005703E0935603DF91CF910895EA01CE1745
:10283000DF07E8F54A815B819E0141155105B1F73B
:10284000E901FB83EA8349915991C40FD51FEC1725
:10285000FD0761F4808191810296840F951FE90143
:1028600099838883828193819B838A83F0E0E0E06F
:1028700012968D919C9113970097B9F52D913C91EB
:102880001197CD010296820F931F2091560330912C
:1028900057032817390739F6309751F51092590325
:1028A00010925803B0935703A0935603BCCFD38321
:1028B000C28340815181840F951FC817D90761F4E5
:1028C0004E5F5F4F88819981480F591F5183408324
:1028D0008A819B81938382832115310509F0B0CFD2
:1028E000F0935903E09358039ECFFD01DC01C0CF64
:1028F00013821282D7CFB0E0A0E0E1E8F4E10C94BB
:10290000BA118C01009751F4CB010E9456138C012F
:10291000C801CDB7DEB7E0E10C94D611FC01E60F9B
:10292000F71F9C0122503109E217F30708F49DC0FC
:10293000D901CD91DC911197C617D70798F0C53012
:10294000D10530F3CE0104978617970708F3C61B0D
:10295000D70B2297C193D1936D937C93CF010E94A3
:10296000F213D6CF5B01AC1ABD0A4C018C0E9D1E32
:10297000A0915803B0915903512C412CF12CE12C1A
:10298000109731F58091560390915703881599055A
:1029900009F05CC04616570608F058C08091000147
:1029A00090910101009741F48DB79EB740910401C9
:1029B00050910501841B950BE817F90708F055C0E5
:1029C000F0935703E0935603F90171836083A0CF1E
:1029D0008D919C91119712966C90129713967C9002
:1029E0001397A815B90559F56C0142E0C40ED11C26
:1029F000CA14DB0420F1AC014A195B09DA01129612
:102A0000159780F06282738251834083D9016D9360
:102A10007C93E114F10471F0D7011396FC93EE93CB
:102A2000129776CF22968C0F9D1FF9019183808398
:102A3000F301EFCFF0935903E093580369CF4816A1
:102A4000590608F42C017D01D3019ACFCB010E94D5
:102A500056137C01009749F0AE01B8010E94381569
:102A6000C8010E94F213870153CF10E000E050CF5D
:102A7000FB01DC0102C001900D9241505040D8F79B
:102A80000895FB01DC0101900D920020E1F708950B
:102A900010E0C2E6D0E004C0FE010E94501321966F
:0A2AA000C336D107C9F7F894FFCF41
:102AAA0000005A0380000000000039019900C600A6
:102ABA008601F700D500E900000000006B033E0321
:102ACA00F7031403370324031503000000009805D5
:102ADA009900F703E2026E616E00696E66006F7616
:102AEA0066000D0A004572726F7221204E6F2042F5
:102AFA004D502053656E736F72204465746563741C
:102B0A0065642121210054656D703A200043004814
:102B1A00756D3A20002500536F696C3A2000686988
:0E2B2A0067682069733A004C6F636B500000BF
:00000001FF
