:100000000C9463000C948B000C948B000C948B006C
:100010000C948B000C948B000C948B000C948B0034
:100020000C948B000C948B000C948B000C948B0024
:100030000C948B000C948B000C948B000C948B0014
:100040000C940E0C0C948B000C94DC0B0C94B60BE3
:100050000C948B000C948B000C948B000C948B00F4
:100060000C94580C0C948B00000000002500280014
:100070002B0000000000240027002A0000000000E0
:1000800023002600290004040404040404040202DA
:100090000202020203030303030301020408102007
:1000A0004080010204081020010204081020000012
:1000B0000008000201000003040700000000000027
:1000C0000000770D2A1011241FBECFEFD8E0DEBF4D
:1000D000CDBF23E0AEE7B1E001C01D92A234B2076C
:1000E000E1F711E0A0E0B1E0E8EFF9E202C005902D
:1000F0000D92AE37B107D9F710E0C2E6D0E004C0E8
:100100002197FE010E94F712C136D107C9F70E945C
:10011000460E0C94EF140C9400008CBD9DBD089508
:1001200008950895DC01ED91FC910190F081E02D9E
:100130000994AF92BF92CF92DF92EF92FF920F930A
:100140001F93CF93DF936C017B018B01040F151F6D
:10015000EB015E01AE18BF08C017D10759F06991D5
:10016000D601ED91FC910190F081E02DC601099539
:10017000892B79F7C501DF91CF911F910F91FF90E6
:10018000EF90DF90CF90BF90AF900895FC01538D1A
:10019000448D252F30E0842F90E0821B930B541761
:1001A00010F0CF96089501970895FC01918D828DEE
:1001B000981761F0A28DAE0FBF2FB11D5D968C9187
:1001C000928D9F5F9F73928F90E008958FEF9FEFC6
:1001D0000895FC01918D828D981731F0828DE80F82
:1001E000F11D858D90E008958FEF9FEF0895FC013C
:1001F000918D228D892F90E0805C9F4F821B910909
:100200008F739927089582E492E00E94F70021E01D
:10021000892B09F420E0822F089580E090E0892B5B
:1002200029F00E94030181110C9400000895FC0143
:10023000A48DA80FB92FB11DA35ABF4F2C91848D47
:1002400090E001968F739927848FA689B7892C93A4
:10025000A089B1898C91837080648C93938D848DF7
:10026000981306C00288F389E02D80818F7D8083FA
:100270000895EF92FF920F931F93CF93DF93EC01BA
:1002800081E0888F9B8D8C8D98131AC0E889F9893D
:10029000808185FF15C09FB7F894EE89FF89608340
:1002A000E889F98980818370806480839FBF81E0C1
:1002B00090E0DF91CF911F910F91FF90EF90089503
:1002C000F62E0B8D10E00F5F1F4F0F731127E02EDE
:1002D0008C8D8E110CC00FB607FCFACFE889F98916
:1002E000808185FFF5CFCE010E941701F1CFEB8D04
:1002F000EC0FFD2FF11DE35AFF4FF0829FB7F894EA
:100300000B8FEA89FB8980818062CFCFCF93DF9307
:10031000EC01888D8823B9F0AA89BB89E889F9891D
:100320008C9185FD03C0808186FD0DC00FB607FC52
:10033000F7CF8C9185FFF2CF808185FFEDCFCE0185
:100340000E941701E9CFDF91CF910895833081F0AA
:1003500028F4813099F08230A9F008958730A9F00F
:100360008830C9F08430B1F4809180008F7D03C063
:10037000809180008F7780938000089584B58F7777
:1003800084BD089584B58F7DFBCF8091B0008F77B9
:100390008093B00008958091B0008F7DF9CF1F93B6
:1003A000CF93DF93282F30E0F901E255FF4F84917E
:1003B000F901E656FF4FD491F901EA57FF4FC49176
:1003C000CC23A9F0162F81110E94A601EC2FF0E09A
:1003D000EE0FFF1FE859FF4FA591B4918FB7F89426
:1003E000EC91111108C0D095DE23DC938FBFDF9113
:1003F000CF911F910895DE2BF8CFCF92DF92EF922D
:10040000FF920F931F93CF93DF93909119039F3F18
:1004100081F48EBD00000DB407FEFDCFFEB48F2D1C
:10042000DF91CF911F910F91FF90EF90DF90CF90D0
:100430000895D82EF12CC7E0D0E001E010E0FF0CC9
:1004400060E0809119030E94CF01B8010C2E01C019
:10045000660F0A94EAF76D21809117030E94CF017D
:1004600061E0809119030E94CF012091180330E0D0
:10047000F901E255FF4F8491F901E656FF4FE490F0
:10048000F901EA57FF4FC490CC2081F081110E94FE
:10049000A601EC2DF0E0EE0FFF1FE458FF4FA591F1
:1004A000B491EC91EE2211F06894F0F8219708F0E5
:1004B000C6CFB5CFCF93DF9390E0FC01E656FF4F58
:1004C00024918A579F4FFC0184918823D1F090E0BA
:1004D000880F991FFC01EE58FF4FA591B491FC01C4
:1004E000E859FF4FC591D49161110EC09FB7F894A0
:1004F0008C91E22FE0958E238C932881E223E88370
:100500009FBFDF91CF9108958FB7F894EC91E22BC4
:10051000EC938FBFF6CF3FB7F89480912A02909169
:100520002B02A0912C02B0912D0226B5A89B05C0EC
:100530002F3F19F00196A11DB11D3FBFBA2FA92F62
:10054000982F8827BC01CD01620F711D811D911D5F
:1005500042E0660F771F881F991F4A95D1F70895CB
:100560008F929F92AF92BF92CF92DF92EF92FF92C3
:100570004B015C010E948B026B017C010E948B028B
:100580006C197D098E099F09683E734081059105AC
:10059000A8F321E0821A9108A108B10888EEC80EDC
:1005A00083E0D81EE11CF11C81149104A104B10464
:1005B00029F7FF90EF90DF90CF90BF90AF909F9082
:1005C0008F900895089585ED8093BC008091BC00C4
:1005D00084FDFCCF10923B0208952091DE01260F8E
:1005E0003327331F21323105ECF420913B02FC010B
:1005F00090E080E0243069F082E00895A091DE016F
:100600002191AC0142545E4FA40FB52FB11D2C9324
:100610000196861798F38091DE01680F6093DE01E2
:1006200080E0089581E008950895E0913D02809171
:100630003C02E81730F4F0E0E256FE4F808190E093
:1006400008958FEF9FEF089590913D0280913C02B5
:100650002FEF3FEF981748F4E92FF0E0E256FE4FF6
:10066000208130E09F5F90933D02C9010895809101
:100670003C0290913D02891B990B0895CF92DF9225
:10068000EF92FF920F931F93CF93DF937C01CB01E7
:100690008A0120914102222389F0EB016B01C40EF3
:1006A000D51ECC15DD0569F06991D701ED91FC915E
:1006B0000190F081E02DC7010995F3CF642F0E94CE
:1006C000ED02C801DF91CF911F910F91FF90EF9044
:1006D000DF90CF900895CF93DF931F92CDB7DEB711
:1006E0006983209141022223F9F020913E022032B9
:1006F00058F021E030E0FC013383228390E080E079
:100700000F90DF91CF91089580913F02E82FF0E0A4
:10071000E258FE4F998190838F5F80933F028093D0
:100720003E0281E090E0ECCF61E0CE0101960E94B4
:10073000ED02F7CF20913E0281E0213208F044C063
:1007400080913B028111FCCF8091400292E0909316
:100750003B0291E090933A029FEF90930102109236
:10076000230220932202AEE7B1E0E2E0F2E090E063
:10077000291331C01092240290912402880F892BF2
:100780008093240280913902813049F51092390218
:10079000809124028093BB008091BC0083FDF8CF40
:1007A00085EC8093BC0080913B028230E1F3809124
:1007B00001028F3FB1F0809101028032A1F080915F
:1007C0000102803391F084E010923F0210923E02C9
:1007D0001092410208953D9131939F5FC9CF85EEFC
:1007E000E0CF80E0F1CF82E0EFCF83E0EDCF90E08B
:1007F00080E008950895CF93DF93D82FC62F80917E
:1008000016038F3F59F58091090390910A032091B7
:100810000D0331E0309341022093400210923F02D9
:1008200010923E02DC01ED91FC910190F081E02DEF
:100830006D2F09958091090390910A03DC01ED91D8
:10084000FC910190F081E02D6C2F099580910903B6
:1008500090910A03DF91CF910C949A038091190330
:100860008F3F21F482E591E00E948D0060E080914D
:1008700016030E94CF018D2F8F770E94FD018C2FD0
:100880000E94FD0161E080911603DF91CF910C94ED
:10089000CF01CF93DF93EC0160E08E810E94CF0106
:1008A00061E08E810E94CF0160E08E810E94CF01C5
:1008B0008BE891E00197F1F7DF91CF910895CF9206
:1008C000DF92EF92FF920F931F93CF93DF936C0110
:1008D0007C0187E0E80EF11CD0E0C0E0062F10E0BC
:1008E000B8010C2E02C0759567950A94E2F7617005
:1008F000F70181917F010E94CF012196C430D1057B
:1009000079F7C601DF91CF911F910F91FF90EF9082
:10091000DF90CF900C944904CF92DF92EF92FF9238
:100920000F931F93CF93DF93EC01F62E642F8C81EE
:100930000E94CF018D818F3F19F060E00E94CF01AE
:100940000F2D10E08F8584FF25C06E0187E0C80E53
:10095000D11CF12CE12CB8010E2C02C075956795C5
:100960000A94E2F76170F60181916F010E94CF0154
:10097000FFEFEF1AFF0A88E0E816F10461F7CE01F5
:10098000DF91CF911F910F91FF90EF90DF90CF906B
:100990000C944904B80184E0759567958A95E1F750
:1009A000CE010E945F046F2DCE01DF91CF911F9188
:1009B0000F91FF90EF90DF90CF900C945F0440E098
:1009C000682F8BEE92E00C948C04CF93DF93613010
:1009D00029F09091FA0298609093FA026093FE02D7
:1009E0001092FF0290E49093000380930103805CD7
:1009F0008093020361E08091EF020E945A0280918D
:100A0000F0028F3F19F061E00E945A0261E080918C
:100A1000F1020E945A02CBEED2E09E012B5E3240E0
:100A20008091FA0284FD0BC084E090E021962817A3
:100A3000390744F461E08E810E945A02EECF88E0CB
:100A400090E0F4CF8BE39DE00197F1F760E08091B7
:100A5000EF020E94CF0160E08091F1020E94CF017D
:100A60008091F0028F3F19F060E00E94CF018091E9
:100A7000FA0284FD39C063E08BEE92E00E945F04CD
:100A8000CBE4D6E4CE010197F1F763E08BEE92E080
:100A90000E945F042197F1F763E08BEE92E00E94E1
:100AA0005F0483E592E00197F1F762E08BEE92E05C
:100AB0000E945F048091FA0280620E94DF0484E059
:100AC0008093FB028CE00E94DF0481E00E94DF043F
:100AD0008BE39FE10197F1F782E08093FC0286E0CF
:100AE000DF91CF910C94DF0480620E94DF048BE4DD
:100AF00096E40197F1F78091FA0280620E94DF0488
:100B000083E592E00197F1F78091FA0280620E94FA
:100B1000DF04D0CF9091FE02891710F08FEF890F7C
:100B2000E82FF0E0E551FD4F848980680C94DF04E4
:100B300041E00E948C0481E090E0089580913B02A6
:100B40008111FCCF81E080933B0280933A029FEFBA
:100B50009093010210922302940F909322028093AB
:100B6000240280912402660F682B609324028091F6
:100B70003902813019F51092390280912402809354
:100B8000BB008091BC0083FDF8CF85EC8093BC0056
:100B900080913B028130E1F380912302841710F4AD
:100BA00040912302A2E0B2E0EEE9F1E080E084139C
:100BB00007C010923D0280933C02089585EEE6CF77
:100BC0009D9191938F5FF3CFCF93C82F80911603A0
:100BD0008F3FA9F58091090390910A0320910D039D
:100BE00031E0309341022093400210923F02109274
:100BF0003E02DC01ED91FC910190F081E02D6C2F23
:100C000009958091090390910A030E949A0341E09B
:100C100060910D038091090390910A030E949E0543
:100C20008091090390910A03DC01ED91FC9102840B
:100C3000F385E02D0995C82F8C2FCF9108958091D1
:100C400019038F3F21F482E591E00E948D0060E05E
:100C5000809116030E94CF018C2F0E94FD0180E03D
:100C60000E94FD01C82F61E0809116030E94CF0110
:100C7000E3CFCF93DF93C82F809116038F3F09F006
:100C800046C08091090390910A0320910D0331E041
:100C9000309341022093400210923F0210923E0294
:100CA000DC01ED91FC910190F081E02D6C2F099514
:100CB0008091090390910A030E949A0342E0609197
:100CC0000D038091090390910A030E949E05809173
:100CD000090390910A03DC01ED91FC910284F385F4
:100CE000E02D0995C82F8091090390910A03DC013A
:100CF000ED91FC910284F385E02D099520E03C2FD5
:100D0000E901C82BD92BCE01DF91CF9108958091B5
:100D100019038F3F21F482E591E00E948D0060E08D
:100D2000809116030E94CF018C2F0E94FD0180E06C
:100D30000E94FD01C82F80E00E94FD01DC2FC82F1A
:100D400061E0809116030E94CF01DDCF0E94390639
:100D50009827892798270895CF93DF9380911603CA
:100D60008F3F09F05BC010923D0210923C0210923E
:100D70003F0210923E0210923B0281E080933A02C1
:100D80001092390261E082E10E94CF0161E083E1CB
:100D90000E94CF018091B9008E7F8093B90080912D
:100DA000B9008D7F8093B90088E48093B80085E412
:100DB0008093BC0080E990E09093380280933702E2
:100DC00081E990E0909336028093350280ED0E9495
:100DD000E40590E0B0E0A0E080930E0390930F0351
:100DE000A0931003B093110380369105A105B105BE
:100DF00009F04CC166EB80EE0E94FB036CE271E0EF
:100E000080E090E00E94B00283EF0E94E40580FF42
:100E100054C064E670E080E090E0F4CF61E00E94AE
:100E2000CF0161E0809116030E945A02809119035C
:100E30008F3F09F034C0CFB7F8948091340281110C
:100E400027C0E0E9F0E08491E4EAF0E09491E82F33
:100E5000F0E0EE0FFF1FEE58FF4FA591B491EC911B
:100E6000E92321F461E08AE00E94CF0161E08AE099
:100E70000E945A028CB580618CBD8CB580648CBD9B
:100E800061E08DE00E945A0261E08BE00E945A020C
:100E9000809134028F5F80933402CFBF97CF61E09F
:100EA0000E945A0261E0809117030E945A0260E09A
:100EB000809118030E945A0289CF88E80E94A606F2
:100EC00090931B0380931A038AE80E94A6069093CE
:100ED0001D0380931C038CE80E94A60690931F03B9
:100EE00080931E038EE80E94A606909321038093B0
:100EF000200380E90E94A606909323038093220397
:100F000082E90E94A606909325038093240384E936
:100F10000E94A606909327038093260386E90E94E9
:100F2000A606909329038093280388E90E94A606C9
:100F300090932B0380932A038AE90E94A60690933C
:100F40002D0380932C038CE90E94A60690932F0317
:100F500080932E038EE90E94A6069093310380931E
:100F6000300381EA0E94E4058093320381EE0E94FF
:100F7000A606909334038093330383EE0E94E40526
:100F80008093350384EE0E94E405C82F85EE0E940D
:100F9000E40590E1C99F900111248F70282B3093B4
:100FA00037032093360386EE0E94E405C82F85EEB2
:100FB0000E94E40590E1C99FE001112490E024E043
:100FC000959587952A95E1F78C2B9D2B9093390366
:100FD0008093380387EE0E94E40580933A038DEEF8
:100FE00080933C0380913D038F71806A80933D0321
:100FF00080913B03807C80933B0360E084EF0E9400
:10100000FB0360913D0362956695677082EF0E94D5
:10101000FB0380913B03682F677090E2699FB001EA
:101020001124282F269526952695277094E0299F30
:1010300090011124622B87FB882780F9682B85EFAC
:101040000E94FB0380913C03682F677090E2699FC8
:10105000B0011124282F269526952695277094E017
:10106000299F90011124622B829586958695837025
:10107000682B84EF0E94FB0364E670E080E090E060
:101080000E94B00281E0DF91CF91089580E0FBCF14
:101090008F929F92AF92BF92CF92DF92EF92FF9288
:1010A000809116038F3F09F0E9C080910903909168
:1010B0000A0320910D0331E0309341022093400256
:1010C00010923F0210923E02DC01ED91FC910190E2
:1010D000F081E02D6AEF09958091090390910A0350
:1010E0000E949A0343E060910D038091090390915F
:1010F0000A030E949E058091090390910A03DC0176
:10110000ED91FC910284F385E02D09954C01990F36
:10111000AA08BB08BA2CA92C982C88248091090312
:1011200090910A03DC01ED91FC910284F385E02D9E
:101130000995092E000CAA0BBB0B882A992AAA2A0A
:10114000BB2ABA2CA92C982C882480910903909151
:101150000A03DC01ED91FC910284F385E02D0995F1
:10116000092E000CAA0BBB0B6C017D01C828D928E5
:10117000EA28FB2860E070E080EC9FE7C114D1040E
:10118000B0E8EB06F10409F470C080911A03909165
:101190001B03B0E0A0E08D2C9E2CAF2CBB24A7FC41
:1011A000BA94881A990AAA0ABB0A37E0F594E79418
:1011B000D794C7943A95D1F7880F991FAA1FBB1FE0
:1011C000A7019601281B390B4A0B5B0BA0911C034E
:1011D000B0911D030E94EF126B017C015BE0F5945E
:1011E000E794D794C7945A95D1F7A5019401C50106
:1011F000B4010E94BD129B01AC016CE0559547956E
:10120000379527956A95D1F7A0911E03B0911F03DA
:101210000E94EF129B01AC017EE0559547953795F2
:1012200027957A95D1F72C0D3D1D4E1D5F1D2093FE
:101230001203309313034093140350931503A5E056
:10124000B0E00E94541160587F4F8F4F9F4F672F1F
:10125000782F892F992787FD9A950E94371020E0D3
:1012600030E048EC52E40E941212FF90EF90DF90C1
:10127000CF90BF90AF909F908F9008958091190369
:101280008F3F21F482E591E00E948D0060E0809123
:1012900016030E94CF018AEF0E94FD0180E00E94A8
:1012A000FD0190E0B0E0A0E0CC24D82EE92EFA2E8B
:1012B00080E00E94FD01C82AFE2CED2CDC2CCC2401
:1012C00080E00E94FD01C82A61E0809116030E941F
:1012D000CF0150CF4F925F926F927F928F929F92E9
:1012E000AF92BF92CF92DF92EF92FF920E94480896
:1012F0008DEF0E943906B0E0A0E0811520E892074A
:10130000A105B10509F4D7C0809012039090130392
:10131000A0901403B09015032CE2921A21E0A20AC7
:10132000B1086C017D013EE0CC0CDD1CEE1CFF1C05
:101330003A95D1F78091360390913703092E000C2E
:10134000AA0BBB0B44E1880F991FAA1FBB1F4A952C
:10135000D1F7C81AD90AEA0AFB0AA0913803B0915A
:101360003903A50194010E94EF12C61AD70AE80AB0
:10137000F90A80E4D80EE11CF11C6FE0F594E794C3
:10138000D794C7946A95D1F7A0913503B0E00E9435
:1013900054112B013C017BE075946794579447945A
:1013A0007A95D1F720E8520E611C711CA0913A0386
:1013B0000A2E000CBB0B94010E94EF12EAE09595F7
:1013C000879577956795EA95D1F7A30192010E94D9
:1013D000BD129B01AC01FAE05595479537952795CD
:1013E000FA95D1F7405E5F4FA0913303B09134037B
:1013F0000E94EF12705E8F4F9F4FAEE095958795DC
:1014000077956795AA95D1F7A70196010E94BD121D
:101410006B017C01BFE09595879577956795BA95A7
:10142000D1F79B01AC010E94BD129B01AC0187E08A
:1014300055954795379527958A95D1F7A091320311
:10144000B0E00E94541124E09595879577956795B3
:101450002A95D1F7C61AD70AE80AF90AF7FE03C097
:10146000C12CD12C7601C701B6016130710581050F
:1014700029E1920724F060E070E080E099E12CE03F
:1014800095958795779567952A95D1F70E9437109E
:1014900020E030E040E85AE30E949610FF90EF9081
:1014A000DF90CF90BF90AF909F908F907F906F9084
:1014B0005F904F90089560E070E080EC9FE7EECF82
:1014C000FB0101900020E9F73197AF01461B570B54
:1014D000DC01ED91FC910280F381E02D09948F9263
:1014E0009F92AF92BF92EF92FF920F931F93CF9371
:1014F000DF93CDB7DEB7A1970FB6F894DEBF0FBE6E
:10150000CDBF7C01FA01CB0119A2223008F42AE0F8
:101510008E010F5D1F4F822E912CB12CA12CBF018B
:10152000A50194010E94CD12F901CA016A300CF59F
:10153000605DD8016E938D01232B242B252B79F729
:1015400090E080E0109721F0BD01C7010E94600A81
:10155000A1960FB6F894DEBF0FBECDBFDF91CF913D
:101560001F910F91FF90EF90BF90AF909F908F9041
:101570000895695CDECF2F923F924F925F926F92F7
:101580007F928F929F92AF92BF92CF92DF92EF9213
:10159000FF921F93CF93DF93EC016A017B01722EC0
:1015A000AB019601CB01B6010E94B81266E371E06F
:1015B000811126C046015701E894B7F82FEF3FEF9D
:1015C0004FE75FE7C501B4010E94B81281110CC05A
:1015D0002FEF3FEF4FE75FE7C501B4010E943010E6
:1015E0006AE371E0181664F02FEF3FEF4FE75FE416
:1015F000C701B6010E94B3121816B4F46EE371E08D
:10160000CE01DF91CF911F91FF90EF90DF90CF90AF
:10161000BF90AF909F908F907F906F905F904F9012
:101620003F902F900C94600A2FEF3FEF4FE75FEC55
:10163000C701B6010E94301087FDE0CF20E030E006
:10164000A901C701B6010E943010312C212C87FF5F
:1016500009C06DE2CE010E9492001C01F7FAF094DD
:10166000F7F8F09410E060E070E080E09FE371161E
:1016700041F020E030E040E251E40E9412121F5F8E
:10168000F6CFA70196010E94A6112B013C010E94F2
:1016900084124B015C012AE0BC01A401CE010E942E
:1016A0006F0A7C01E20CF31C1123C1F1C501B401E6
:1016B0000E9435109B01AC01C301B2010E94A5112B
:1016C0004B015C016EE2CE010E949200E80EF91E11
:1016D000115020F120E030E040E251E4C501B401B6
:1016E0000E9496102B013C010E9484124B01B12CE8
:1016F000A12C2AE0B501A401CE010E946F0AE80ED8
:10170000F91EC501B4010E9435109B01AC01C30153
:10171000B2010E94A5114B015C01DACFC701DF9134
:10172000CF911F91FF90EF90DF90CF90BF90AF903F
:101730009F908F907F906F905F904F903F902F90F1
:101740000895CF93DF93AB01BC0122E082E492E0E5
:101750000E94BB0AEC0162E471E082E492E00E9424
:10176000600A8C0F9D1FDF91CF9108951F920F92F9
:101770000FB60F9211242F933F934F935F936F9364
:101780007F938F939F93AF93BF93EF93FF9382E4E5
:1017900092E00E941701FF91EF91BF91AF919F914D
:1017A0008F917F916F915F914F913F912F910F900A
:1017B0000FBE0F901F9018951F920F920FB60F92A9
:1017C00011242F938F939F93EF93FF93E0915202F5
:1017D000F09153028081E0915802F091590282FD0C
:1017E0001BC0908180915B028F5F8F7320915C02A0
:1017F000821741F0E0915B02F0E0EE5BFD4F958FC8
:1018000080935B02FF91EF919F918F912F910F90A9
:101810000FBE0F901F9018958081F4CF1F920F92EA
:101820000FB60F9211242F933F938F939F93AF93F3
:10183000BF938091260290912702A0912802B09137
:1018400029023091250223E0230F2D3758F5019608
:10185000A11DB11D2093250280932602909327029B
:10186000A0932802B093290280912A0290912B0222
:10187000A0912C02B0912D020196A11DB11D809363
:101880002A0290932B02A0932C02B0932D02BF91B9
:10189000AF919F918F913F912F910F900FBE0F901D
:1018A0001F90189526E8230F0296A11DB11DD2CFD7
:1018B0001F920F920FB60F9211242F933F934F93C5
:1018C0005F936F937F938F939F93AF93BF93EF93A8
:1018D000FF938091B900887F803609F44AC0F0F503
:1018E000883209F4A7C018F5803109F49BC0B8F418
:1018F000882309F4F9C0883009F494C0FF91EF916E
:10190000BF91AF919F918F917F916F915F914F9117
:101910003F912F910F900FBE0F901F901895883117
:1019200009F488C0803251F78093010214C08034DA
:1019300009F49DC040F48033B9F38833F9F68093FD
:10194000010285ECB0C0803509F485C0883509F402
:1019500096C0883499F60E94E302D0CF883909F402
:101960008CC038F5883729F050F4883611F080376C
:1019700029F683E080933B021092000257C088381A
:1019800009F47BC0803919F0803809F0B7CF809115
:101990000002803208F071C0E091000281E08E0FF9
:1019A000809300028091BB00F0E0E052FE4F808304
:1019B0003DC0803B39F0E0F4803A09F479C0883AC0
:1019C00009F09CCF84E080933B021092DF011092DB
:1019D000DE01E0913702F091380209958091DE0135
:1019E00081110FC081E08093DE011092BE0109C019
:1019F000803C09F4A6CF883C09F4A3CF883B09F0CA
:101A00007DCFE091DF0181E08E0F8093DF01F0E078
:101A1000E254FE4F80818093BB009091DF01809162
:101A2000DE0129C0809124028093BB0085EC809365
:101A3000BC0064CF9091230280912202981758F540
:101A4000E091230281E08E0F80932302F0E0EE5FAD
:101A5000FD4F8081E9CFE091230281E08E0F8093DA
:101A600023028091BB00F0E0EE5FFD4F80839091F8
:101A70002302809122029817C8F285E8D8CFE0911E
:101A8000230281E08E0F809323028091BB00F0E05F
:101A9000EE5FFD4F808380913A0281115CCF81E03F
:101AA0008093390284EA8093BC0010923B0226CFD7
:101AB00085EC8093BC0010923B0280910002803242
:101AC00030F4E0910002F0E0E052FE4F10826091AD
:101AD000000270E0E0913502F091360280EE91E074
:101AE0000995109200020ACF1092010234CF109291
:101AF00045021092440288EE93E0A0E0B0E08093AB
:101B0000460290934702A0934802B09349022AE00C
:101B100031E0309343022093420225EC30E03093D1
:101B20004F0220934E0224EC30E030935102209378
:101B3000500220EC30E0309353022093520221EC0B
:101B400030E0309355022093540222EC30E0309381
:101B500057022093560226EC30E03093590220932E
:101B6000580210925B0210925C0210925D02109279
:101B70005E021092E2021092E1028093E3029093DF
:101B8000E402A093E502B093E6028CE191E0909329
:101B9000E0028093DF028FEF809316038093170398
:101BA0008093180380931903109204031092030387
:101BB0001092060310920503109208031092070377
:101BC00061E070E090E080E00E9422140097E9F06C
:101BD000909304038093030310920603109205036D
:101BE0002091070330910803232B11F4FC0110828C
:101BF000109208031092070364E471E080910303DC
:101C0000909104030E94E81414C080910303909102
:101C10000403009711F00E9499131092040310928C
:101C20000303109208031092070310920603109208
:101C300005031092EE021092ED028EE291E0909375
:101C4000EC028093EB0287E08093EF028FEF8093AA
:101C5000F00286E08093F10285E08093F20284E056
:101C60008093F30283E08093F40282E08093F50294
:101C70001092F6021092F7021092F8021092F902F6
:101C80001092FA0261E080E10C94E504789484B546
:101C9000826084BD84B5816084BD85B5826085BD68
:101CA00085B5816085BD80916E00816080936E00F6
:101CB00010928100809181008260809381008091E8
:101CC0008100816080938100809180008160809399
:101CD00080008091B10084608093B1008091B00059
:101CE00081608093B00080917A00846080937A0054
:101CF00080917A00826080937A0080917A0081607E
:101D000080937A0080917A00806880937A001092A4
:101D1000C100E0915202F091530282E08083E09191
:101D20004E02F0914F021082E0915002F091510268
:101D30008FEC808310925A02E0915602F091570284
:101D400086E08083E0915402F091550280818061A9
:101D50008083E0915402F0915502808188608083F5
:101D6000E0915402F0915502808180688083E09177
:101D70005402F091550280818F7D808361E088E07C
:101D80000E945A0261E089E00E945A0261E08AE002
:101D90000E945A0261E08BE00E945A0261E088E0F2
:101DA0000E94CF0161E089E00E94CF0161E08AE0FA
:101DB0000E94CF0161E08BE00E94CF0164E084E1EA
:101DC0000E94E50487E780930D038FED92E09093E6
:101DD0000A03809309030E94AC06882309F4F1C02A
:101DE00010E4C0E0D0E085E6E82EF12C10937C00F2
:101DF00080917A00806480937A0080917A0086FDD9
:101E0000FCCF8091780060917900762F682F072EA3
:101E1000000C880B990B0E943710209130023091F2
:101E2000310240913202509133020E94A6114B01BF
:101E30005C018092300290923102A0923202B09204
:101E4000330261E070E080E090E00E94B00281E047
:101E5000E81AF10859F620E030E048EC52E4C501F8
:101E6000B4010E9412126093300270933102809389
:101E70003202909333020E9448080E94A10B0E94F4
:101E80006A090E94A10B6091300270913102809129
:101E90003202909133020E94A10B80E00E948A05D9
:101EA00066E671E08BEE92E00E94600A0E944808AC
:101EB000AB01BC0122E08BEE92E00E94BB0A6CE712
:101EC00071E08BEE92E00E94600A6FED8BEE92E083
:101ED0000E9492006DE671E08BEE92E00E94600A33
:101EE00081E00E948A056FE671E08BEE92E00E942D
:101EF000600A0E946A09AB01BC0122E08BEE92E00D
:101F00000E94BB0A6CE771E08BEE92E00E94600ACF
:101F100065E771E08BEE92E00E94600A82E00E9429
:101F20008A0567E771E08BEE92E00E94600A4091BB
:101F3000300250913102609132027091330222E0FE
:101F40008BEE92E00E94BB0A83E00E948A05C0905B
:101F50002E02D0902F020D2C000CEE08FF082AE074
:101F6000B701A601F7FE0DC06DE28BEE92E00E9474
:101F7000920044275527BA014C195D096E097F0963
:101F80002AE08BEE92E00E946F0A82E492E00E94C7
:101F9000F700892B51F16EE170E080E090E00E9443
:101FA000B00282E492E00E94F700181619066CF75E
:101FB00082E492E00E94D50090932F0280932E023B
:101FC000E4CF86E780930D030E94AC06811108CF11
:101FD00065E471E082E492E00E94600A62E471E0EC
:101FE00082E492E00E94600AFFCF0E9448086B01E1
:101FF0007C0160912E0270912F02072E000C880B3D
:10200000990B0E9437109B01AC01C701B6010E94D9
:10201000B31260E087FF0AC00E94480820E030E069
:10202000A9010E943010181624F061E088E00E9497
:10203000CF0160ED77E080E090E00E94B002209751
:1020400009F4D1CE0E940301882309F4CCCE0E946A
:102050000000C9CE80910303909104030C9499135E
:102060000E94721008F481E00895E89409C097FB7B
:102070003EF490958095709561957F4F8F4F9F4F5F
:102080009923A9F0F92F96E9BB279395F6958795A3
:1020900077956795B795F111F8CFFAF4BB0F11F466
:1020A00060FF1BC06F5F7F4F8F4F9F4F16C088230D
:1020B00011F096E911C0772321F09EE8872F762F43
:1020C00005C0662371F096E8862F70E060E02AF084
:1020D0009A95660F771F881FDAF7880F9695879570
:1020E00097F90895990F0008550FAA0BE0E8FEEF45
:1020F00016161706E807F907C0F012161306E407CC
:10210000F50798F0621B730B840B950B39F40A26C4
:1021100061F0232B242B252B21F408950A2609F4A2
:10212000A140A6958FEF811D811D08950E94A910E1
:102130000C941A110E940C1138F00E94131120F017
:10214000952311F00C9403110C94091111240C9493
:102150004E110E942B1170F3959FC1F3950F50E023
:10216000551F629FF001729FBB27F00DB11D639F49
:10217000AA27F00DB11DAA1F649F6627B00DA11DEF
:10218000661F829F2227B00DA11D621F739FB00D95
:10219000A11D621F839FA00D611D221F749F332705
:1021A000A00D611D231F849F600D211D822F762F9E
:1021B0006A2F11249F5750409AF0F1F088234AF07B
:1021C000EE0FFF1FBB1F661F771F881F91505040E7
:1021D000A9F79E3F510580F00C9403110C944E1109
:1021E0005F3FE4F3983ED4F3869577956795B7956E
:1021F000F795E7959F5FC1F7FE2B880F911D969588
:10220000879597F9089597F99F6780E870E060E0F7
:1022100008959FEF80EC089500240A94161617067F
:1022200018060906089500240A94121613061406C7
:1022300005060895092E0394000C11F4882352F02A
:10224000BB0F40F4BF2B11F460FF04C06F5F7F4FE2
:102250008F4F9F4F089557FD9058440F551F59F0C9
:102260005F3F71F04795880F97FB991F61F09F3F83
:1022700079F087950895121613061406551FF2CFAC
:102280004695F1DF08C0161617061806991FF1CFFC
:1022900086957105610508940895E894BB27662723
:1022A0007727CB0197F908950E949611A59F900D6D
:1022B000B49F900DA49F800D911D112408952F921D
:1022C0003F924F925F926F927F928F929F92AF92C6
:1022D000BF92CF92DF92EF92FF920F931F93CF9313
:1022E000DF93CDB7DEB7CA1BDB0B0FB6F894DEBFAA
:1022F0000FBECDBF09942A88398848885F846E84D0
:102300007D848C849B84AA84B984C884DF80EE8019
:10231000FD800C811B81AA81B981CE0FD11D0FB622
:10232000F894DEBF0FBECDBFED010895A29FB001AE
:10233000B39FC001A39F700D811D1124911DB29FF9
:10234000700D811D1124911D08955058BB27AA2797
:102350000E94BD110C941A110E940C1138F00E94B9
:10236000131120F039F49F3F19F426F40C9409114D
:102370000EF4E095E7FB0C940311E92F0E942B115A
:1023800058F3BA17620773078407950720F079F4AA
:10239000A6F50C944D110EF4E0950B2EBA2FA02D3E
:1023A0000B01B90190010C01CA01A0011124FF2702
:1023B000591B99F0593F50F4503E68F11A16F040FD
:1023C000A22F232F342F4427585FF3CF46953795FC
:1023D0002795A795F0405395C9F77EF41F16BA0BC1
:1023E000620B730B840BBAF09150A1F0FF0FBB1F6F
:1023F000661F771F881FC2F70EC0BA0F621F731FB8
:10240000841F48F4879577956795B795F7959E3F14
:1024100008F0B0CF9395880F08F09927EE0F9795A5
:10242000879508950E9426120C941A110E94131188
:1024300058F00E940C1140F029F45F3F29F00C94F1
:10244000031151110C944E110C9409110E942B117F
:1024500068F39923B1F3552391F3951B550BBB27D3
:10246000AA2762177307840738F09F5F5F4F220F18
:10247000331F441FAA1FA9F335D00E2E3AF0E0E80F
:1024800032D091505040E695001CCAF72BD0FE2F59
:1024900029D0660F771F881FBB1F261737074807ED
:1024A000AB07B0E809F0BB0B802DBF01FF279358A5
:1024B0005F4F3AF09E3F510578F00C9403110C9455
:1024C0004E115F3FE4F3983ED4F386957795679578
:1024D000B795F7959F5FC9F7880F911D96958795DA
:1024E00097F90895E1E0660F771F881FBB1F6217F9
:1024F00073078407BA0720F0621B730B840BBA0BB7
:10250000EE1F88F7E09508950E94331188F09F57D9
:1025100098F0B92F9927B751B0F0E1F0660F771F07
:10252000881F991F1AF0BA95C9F714C0B13091F0FD
:102530000E944D11B1E008950C944D11672F782F32
:102540008827B85F39F0B93FCCF3869577956795C2
:10255000B395D9F73EF490958095709561957F4F2E
:102560008F4F9F4F08950E94721008F48FEF0895C7
:102570000E947210880B990B0895DB018F939F9333
:102580000E945411BF91AF91A29F800D911DA39FF6
:10259000900DB29F900D11240895A1E21A2EAA1B4E
:1025A000BB1BFD010DC0AA1FBB1FEE1FFF1FA21703
:1025B000B307E407F50720F0A21BB30BE40BF50B00
:1025C000661F771F881F991F1A9469F76095709589
:1025D000809590959B01AC01BD01CF010895B7FF97
:1025E0000C9454110E945411821B930B0895EE0F0A
:1025F000FF1F0590F491E02D09940F931F93CF9343
:10260000DF938230910510F482E090E0E091400386
:10261000F091410330E020E0B0E0A0E0309799F481
:102620002115310509F44AC0281B390B2430310526
:10263000D8F58A819B816115710589F1FB0193832E
:102640008283FE0111C040815181028113814817AC
:102650005907E0F04817590799F4109761F012965E
:102660000C93129713961C933296CF01DF91CF9162
:102670001F910F9108950093400310934103F4CFED
:102680002115310551F04217530738F0A901DB013C
:102690009A01BD01DF01F801C1CFEF01F9CF90939D
:1026A000410380934003CDCFFE01E20FF31F8193DE
:1026B00091932250310939832883D7CF20913E034B
:1026C00030913F03232B41F420910201309103010B
:1026D00030933F0320933E0320910001309101018C
:1026E0002115310541F42DB73EB7409104015091B9
:1026F0000501241B350BE0913E03F0913F03E217E7
:10270000F307A0F42E1B3F0B2817390778F0AC0114
:102710004E5F5F4F2417350748F04E0F5F1F5093F1
:102720003F0340933E03819391939FCFF0E0E0E01D
:102730009CCFCF93DF930097E9F0FC01329713828F
:102740001282A0914003B0914103ED0130E020E0FE
:102750001097A1F420813181820F931F20913E03B5
:1027600030913F032817390709F061C0F0933F0308
:10277000E0933E03DF91CF910895EA01CE17DF0782
:10278000E8F54A815B819E0141155105B1F7E901E8
:10279000FB83EA8349915991C40FD51FEC17FD07BC
:1027A00061F4808191810296840F951FE9019983DC
:1027B0008883828193819B838A83F0E0E0E0129694
:1027C0008D919C9113970097B9F52D913C9111979C
:1027D000CD010296820F931F20913E0330913F035B
:1027E0002817390739F6309751F5109241031092A6
:1027F0004003B0933F03A0933E03BCCFD383C28377
:1028000040815181840F951FC817D90761F44E5F2D
:102810005F4F88819981480F591F518340838A8176
:102820009B81938382832115310509F0B0CFF0930A
:102830004103E09340039ECFFD01DC01C0CF138232
:102840001282D7CFB0E0A0E0E8E2F4E10C9461118D
:102850008C01009751F4CB010E94FD128C01C8013C
:10286000CDB7DEB7E0E10C947D11FC01E60FF71F58
:102870009C0122503109E217F30708F49DC0D901E9
:10288000CD91DC911197C617D70798F0C530D105C7
:1028900030F3CE0104978617970708F3C61BD70BB2
:1028A0002297C193D1936D937C93CF010E9499138A
:1028B000D6CF5B01AC1ABD0A4C018C0E9D1EA091B7
:1028C0004003B0914103512C412CF12CE12C109785
:1028D00031F580913E0390913F038815990509F0E9
:1028E0005CC04616570608F058C0809100019091D0
:1028F0000101009741F48DB79EB7409104015091BA
:102900000501841B950BE817F90708F055C0F093F3
:102910003F03E0933E03F90171836083A0CF8D9163
:102920009C91119712966C90129713967C90139726
:10293000A815B90559F56C0142E0C40ED11CCA14A2
:10294000DB0420F1AC014A195B09DA0112961597F4
:1029500080F06282738251834083D9016D937C93AE
:10296000E114F10471F0D7011396FC93EE931297E2
:1029700076CF22968C0F9D1FF90191838083F301FE
:10298000EFCFF0934103E093400369CF4816590617
:1029900008F42C017D01D3019ACFCB010E94FD12D6
:1029A0007C01009749F0AE01B8010E94DF14C80114
:1029B0000E949913870153CF10E000E050CFFB0134
:1029C000DC0102C001900D9241505040D8F70895AB
:1029D000FB01DC0101900D920020E1F7089510E069
:1029E000C2E6D0E004C0FE010E94F7122196C33671
:0829F000D107C9F7F894FFCFED
:1029F8000000420380000000000039019900C60071
:102A08008601F700D500E900000000006B033E03D3
:102A1800F703140337032403150300000000980587
:102A28009900F703E2026E616E00696E66006F76C8
:102A380066000D0A004572726F7221204E6F2042A7
:102A48004D502053656E736F7220446574656374CE
:102A580065642121210054656D703A2000430048C7
:0E2A6800756D3A20002500536F696C3A20000E
:00000001FF
