:100000000C9462000C948A000C948A000C948A0070
:100010000C948A000C948A000C948A000C948A0038
:100020000C948A000C948A000C948A000C948A0028
:100030000C948A000C948A000C948A000C948A0018
:100040000C940D0C0C948A000C94DB0B0C94B50BE7
:100050000C948A000C948A000C948A000C948A00F8
:100060000C94570C0C948A00000000002500280016
:100070002B0000000000240027002A0000000000E0
:1000800023002600290004040404040404040202DA
:100090000202020203030303030301020408102007
:1000A0004080010204081020010204081020000012
:1000B0000008000201000003040700000000000027
:1000C0000000760D11241FBECFEFD8E0DEBFCDBFFC
:1000D00011E0A0E0B1E0ECEAF4E202C005900D927C
:1000E000A837B107D9F723E0A8E7B1E001C01D9216
:1000F000A433B207E1F710E0C2E6D0E004C02197D4
:10010000FE010E943F12C136D107C9F70E94D30DEC
:100110000C9454120C9400008CBD9DBD089508955C
:100120000895DC01ED91FC910190F081E02D09949E
:10013000AF92BF92CF92DF92EF92FF920F931F93F5
:10014000CF93DF936C017B018B01040F151FEB0133
:100150005E01AE18BF08C017D10759F06991D601EA
:10016000ED91FC910190F081E02DC6010995892B5C
:1001700079F7C501DF91CF911F910F91FF90EF901B
:10018000DF90CF90BF90AF900895FC01538D448DC8
:10019000252F30E0842F90E0821B930B541710F032
:1001A000CF96089501970895FC01918D828D98173F
:1001B00061F0A28DAE0FBF2FB11D5D968C91928D17
:1001C0009F5F9F73928F90E008958FEF9FEF089548
:1001D000FC01918D828D981731F0828DE80FF11D11
:1001E000858D90E008958FEF9FEF0895FC01918D2C
:1001F000228D892F90E0805C9F4F821B91098F7325
:10020000992708958EE392E00E94F60021E0892B61
:1002100009F420E0822F089580E090E0892B29F0F6
:100220000E94020181110C9400000895FC01A48D2C
:10023000A80FB92FB11DA35ABF4F2C91848D90E008
:1002400001968F739927848FA689B7892C93A089EB
:10025000B1898C91837080648C93938D848D981375
:1002600006C00288F389E02D80818F7D8083089508
:10027000EF92FF920F931F93CF93DF93EC0181E0F6
:10028000888F9B8D8C8D98131AC0E889F98980819D
:1002900085FF15C09FB7F894EE89FF896083E889D0
:1002A000F98980818370806480839FBF81E090E0C2
:1002B000DF91CF911F910F91FF90EF900895F62E4F
:1002C0000B8D10E00F5F1F4F0F731127E02E8C8DE9
:1002D0008E110CC00FB607FCFACFE889F98980812E
:1002E00085FFF5CFCE010E941601F1CFEB8DEC0F0B
:1002F000FD2FF11DE35AFF4FF0829FB7F8940B8F4B
:10030000EA89FB8980818062CFCFCF93DF93EC01B4
:10031000888D8823B9F0AA89BB89E889F9898C91ED
:1003200085FD03C0808186FD0DC00FB607FCF7CFA9
:100330008C9185FFF2CF808185FFEDCFCE010E94A9
:100340001601E9CFDF91CF910895833081F028F431
:10035000813099F08230A9F008958730A9F0883073
:10036000C9F08430B1F4809180008F7D03C080910A
:1003700080008F7780938000089584B58F7784BD47
:10038000089584B58F7DFBCF8091B0008F778093E7
:10039000B00008958091B0008F7DF9CF1F93CF9367
:1003A000DF93282F30E0F901E255FF4F8491F901E6
:1003B000E656FF4FD491F901EA57FF4FC491CC2381
:1003C000A9F0162F81110E94A501EC2FF0E0EE0F8D
:1003D000FF1FE859FF4FA591B4918FB7F894EC91A6
:1003E000111108C0D095DE23DC938FBFDF91CF9130
:1003F0001F910895DE2BF8CFCF92DF92EF92FF92FC
:100400000F931F93CF93DF9390910F039F3F81F43E
:100410008EBD00000DB407FEFDCFFEB48F2DDF9121
:10042000CF911F910F91FF90EF90DF90CF900895A3
:10043000D82EF12CC7E0D0E001E010E0FF0C60E026
:1004400080910F030E94CE01B8010C2E01C0660FEF
:100450000A94EAF76D2180910D030E94CE0161E0BC
:1004600080910F030E94CE0120910E0330E0F9012C
:10047000E255FF4F8491F901E656FF4FE490F901F0
:10048000EA57FF4FC490CC2081F081110E94A50152
:10049000EC2DF0E0EE0FFF1FE458FF4FA591B49153
:1004A000EC91EE2211F06894F0F8219708F0C6CF95
:1004B000B5CFCF93DF9390E0FC01E656FF4F249138
:1004C0008A579F4FFC0184918823D1F090E0880FD8
:1004D000991FFC01EE58FF4FA591B491FC01E8591A
:1004E000FF4FC591D49161110EC09FB7F8948C91C4
:1004F000E22FE0958E238C932881E223E8839FBF2F
:10050000DF91CF9108958FB7F894EC91E22BEC93A3
:100510008FBFF6CF3FB7F8948091240290912502C7
:10052000A0912602B091270226B5A89B05C02F3FB7
:1005300019F00196A11DB11D3FBFBA2FA92F982F09
:100540008827BC01CD01620F711D811D911D42E004
:10055000660F771F881F991F4A95D1F708958F92CC
:100560009F92AF92BF92CF92DF92EF92FF924B0198
:100570005C010E948A026B017C010E948A026C1954
:100580007D098E099F09683E734081059105A8F396
:1005900021E0821A9108A108B10888EEC80E83E014
:1005A000D81EE11CF11C81149104A104B10429F7A7
:1005B000FF90EF90DF90CF90BF90AF909F908F9083
:1005C0000895089585ED8093BC008091BC0084FD62
:1005D000FCCF1092370208952091D801260F3327BF
:1005E000331F21323105ECF420913702FC0190E0F9
:1005F00080E0243069F082E00895A091D801219133
:10060000AC0148545E4FA40FB52FB11D2C93019639
:10061000861798F38091D801680F6093D80180E025
:10062000089581E008950895E0913902809138029B
:10063000E81730F4F0E0E856FE4F808190E008952E
:100640008FEF9FEF089590913902809138022FEF3C
:100650003FEF981748F4E92FF0E0E856FE4F20816D
:1006600030E09F5F90933902C9010895809138026C
:1006700090913902891B990B0895CF92DF92EF92E6
:10068000FF920F931F93CF93DF937C01CB018A01DD
:1006900020913D02222389F0EB016B01C40ED51E8F
:1006A000CC15DD0569F06991D701ED91FC910190C0
:1006B000F081E02DC7010995F3CF642F0E94EC0271
:1006C000C801DF91CF911F910F91FF90EF90DF90C4
:1006D000CF900895CF93DF931F92CDB7DEB7698394
:1006E00020913D022223F9F020913A02203258F065
:1006F00021E030E0FC013383228390E080E00F9022
:10070000DF91CF91089580913B02E82FF0E0E85807
:10071000FE4F998190838F5F80933B0280933A02D2
:1007200081E090E0ECCF61E0CE0101960E94EC0206
:10073000F7CF20913A0281E0213208F044C0809145
:1007400037028111FCCF80913C0292E090933702F6
:1007500091E0909336029FEF9093FB0110921D025F
:1007600020931C02A8E7B1E0ECEFF1E090E0291340
:1007700031C010921E0290911E02880F892B809327
:100780001E0280913502813049F510923502809128
:100790001E028093BB008091BC0083FDF8CF85ECE6
:1007A0008093BC00809137028230E1F38091FB019D
:1007B0008F3FB1F08091FB018032A1F08091FB016D
:1007C000803391F084E010923B0210923A02109232
:1007D0003D0208953D9131939F5FC9CF85EEE0CFF3
:1007E00080E0F1CF82E0EFCF83E0EDCF90E080E0DA
:1007F00008950895CF93DF93D82FC62F80910C03CF
:100800008F3F59F58091FF029091000320910303DF
:1008100031E030933D0220933C0210923B02109253
:100820003A02DC01ED91FC910190F081E02D6D2FF9
:1008300009958091FF0290910003DC01ED91FC91FC
:100840000190F081E02D6C2F09958091FF0290912D
:100850000003DF91CF910C94990380910F038F3F98
:1008600021F482E591E00E948C0060E080910C030D
:100870000E94CE018D2F8F770E94FC018C2F0E9449
:10088000FC0161E080910C03DF91CF910C94CE01CB
:10089000CF93DF93EC0160E08E810E94CE0161E096
:1008A0008E810E94CE0160E08E810E94CE018BE895
:1008B00091E00197F1F7DF91CF910895CF92DF9208
:1008C000EF92FF920F931F93CF93DF936C017C0104
:1008D00087E0E80EF11CD0E0C0E0062F10E0B80180
:1008E0000C2E02C0759567950A94E2F76170F701C6
:1008F00081917F010E94CE012196C430D10579F704
:10090000C601DF91CF911F910F91FF90EF90DF9083
:10091000CF900C944804CF92DF92EF92FF920F9306
:100920001F93CF93DF93EC01F62E642F8C810E94EE
:10093000CE018D818F3F19F060E00E94CE010F2D16
:1009400010E08F8584FF25C06E0187E0C80ED11CA2
:10095000F12CE12CB8010E2C02C0759567950A9414
:10096000E2F76170F60181916F010E94CE01FFEF05
:10097000EF1AFF0A88E0E816F10461F7CE01DF9173
:10098000CF911F910F91FF90EF90DF90CF900C943B
:100990004804B80184E0759567958A95E1F7CE0122
:1009A0000E945E046F2DCE01DF91CF911F910F91B8
:1009B000FF90EF90DF90CF900C945E0440E0682FA2
:1009C00087EE92E00C948B04CF93DF93613029F093
:1009D0009091F60298609093F6026093FA0210925A
:1009E000FB0290E49093FC028093FD02805C809374
:1009F000FE0261E08091EB020E9459028091EC02BC
:100A00008F3F19F061E00E94590261E08091ED0290
:100A10000E945902C7EED2E09E01275E32408091CB
:100A2000F60284FD0BC084E090E021962817390778
:100A300044F461E08E810E945902EECF88E090E09C
:100A4000F4CF8BE39DE00197F1F760E08091EB023A
:100A50000E94CE0160E08091ED020E94CE01809163
:100A6000EC028F3F19F060E00E94CE018091F60207
:100A700084FD39C063E087EE92E00E945E04CBE41F
:100A8000D6E4CE010197F1F763E087EE92E00E9491
:100A90005E042197F1F763E087EE92E00E945E0426
:100AA00083E592E00197F1F762E087EE92E00E9421
:100AB0005E048091F60280620E94DE0484E08093EE
:100AC000F7028CE00E94DE0481E00E94DE048BE3EA
:100AD0009FE10197F1F782E08093F80286E0DF91D1
:100AE000CF910C94DE0480620E94DE048BE496E4D5
:100AF0000197F1F78091F60280620E94DE0483E59F
:100B000092E00197F1F78091F60280620E94DE0484
:100B1000D0CF9091FA02891710F08FEF890FE82F4C
:100B2000F0E0E951FD4F848980680C94DE0441E0D7
:100B30000E948B0481E090E008958091370281113A
:100B4000FCCF81E080933702809336029FEF909331
:100B5000FB0110921D02940F90931C0280931E02C1
:100B600080911E02660F682B60931E0280913502F1
:100B7000813019F51092350280911E028093BB00DE
:100B80008091BC0083FDF8CF85EC8093BC00809100
:100B900037028130E1F380911D02841710F44091F7
:100BA0001D02ACEFB1E0E8E9F1E080E0841307C09A
:100BB0001092390280933802089585EEE6CF9D9118
:100BC00091938F5FF3CFCF93C82F80910C038F3F0A
:100BD000A9F58091FF02909100032091030331E079
:100BE00030933D0220933C0210923B0210923A0255
:100BF000DC01ED91FC910190F081E02D6C2F0995C5
:100C00008091FF02909100030E94990341E060915E
:100C100003038091FF02909100030E949D05809143
:100C2000FF0290910003DC01ED91FC910284F385B9
:100C3000E02D0995C82F8C2FCF91089580910F0337
:100C40008F3F21F482E591E00E948C0060E080916A
:100C50000C030E94CE018C2F0E94FC0180E00E94B8
:100C6000FC01C82F61E080910C030E94CE01E3CF0C
:100C7000CF93DF93C82F80910C038F3F09F046C0BC
:100C80008091FF02909100032091030331E03093A3
:100C90003D0220933C0210923B0210923A02DC018A
:100CA000ED91FC910190F081E02D6C2F09958091E0
:100CB000FF02909100030E94990342E060910303B8
:100CC0008091FF02909100030E949D058091FF0298
:100CD00090910003DC01ED91FC910284F385E02DFD
:100CE0000995C82F8091FF0290910003DC01ED91DE
:100CF000FC910284F385E02D099520E03C2FE90169
:100D0000C82BD92BCE01DF91CF91089580910F038D
:100D10008F3F21F482E591E00E948C0060E0809199
:100D20000C030E94CE018C2F0E94FC0180E00E94E7
:100D3000FC01C82F80E00E94FC01DC2FC82F61E07D
:100D400080910C030E94CE01DDCF0E9438069827C7
:100D5000892798270895CF93DF9380910C038F3FC5
:100D600009F05BC0109239021092380210923B02D7
:100D700010923A021092370281E08093360210926C
:100D8000350261E082E10E94CE0161E083E10E94D0
:100D9000CE018091B9008E7F8093B9008091B90017
:100DA0008D7F8093B90088E48093B80085E48093B8
:100DB000BC008FE890E0909334028093330280E986
:100DC00090E0909332028093310280ED0E94E3051F
:100DD00090E0B0E0A0E08093040390930503A0931B
:100DE0000603B093070380369105A105B10509F00C
:100DF0004CC166EB80EE0E94FA036CE271E080E089
:100E000090E00E94AF0283EF0E94E30580FF54C090
:100E100064E670E080E090E0F4CF61E00E94CE01F3
:100E200061E080910C030E94590280910F038F3F73
:100E300009F034C0CFB7F89480913002811127C0F7
:100E4000E0E9F0E08491E4EAF0E09491E82FF0E04A
:100E5000EE0FFF1FEE58FF4FA591B491EC91E923DF
:100E600021F461E08AE00E94CE0161E08AE00E9404
:100E700059028CB580618CBD8CB580648CBD61E0FD
:100E80008DE00E94590261E08BE00E94590280913E
:100E900030028F5F80933002CFBF97CF61E00E9416
:100EA000590261E080910D030E94590260E0809137
:100EB0000E030E94590289CF88E80E94A5069093EC
:100EC0001103809310038AE80E94A50690931303F0
:100ED000809312038CE80E94A506909315038093DB
:100EE00014038EE80E94A5069093170380931603BF
:100EF00080E90E94A506909319038093180382E964
:100F00000E94A50690931B0380931A0384E90E9414
:100F1000A50690931D0380931C0386E90E94A506F5
:100F200090931F0380931E0388E90E94A506909367
:100F30002103809320038AE90E94A506909323034E
:100F4000809322038CE90E94A50690932503809349
:100F500024038EE90E94A50690932703809326031D
:100F600081EA0E94E3058093280381EE0E94A50692
:100F700090932A038093290383EE0E94E3058093D4
:100F80002B0384EE0E94E305C82F85EE0E94E30543
:100F900090E1C99F900111248F70282B30932D036D
:100FA00020932C0386EE0E94E305C82F85EE0E9455
:100FB000E30590E1C99FE001112490E024E09595BC
:100FC00087952A95E1F78C2B9D2B90932F03809387
:100FD0002E0387EE0E94E305809330038DEE80930D
:100FE0003203809133038F71806A80933303809141
:100FF0003103807C8093310360E084EF0E94FA0328
:101000006091330362956695677082EF0E94FA03E0
:1010100080913103682F677090E2699FB0011124BD
:10102000282F269526952695277094E0299F9001D4
:101030001124622B87FB882780F9682B85EF0E949B
:10104000FA0380913203682F677090E2699FB001C4
:101050001124282F269526952695277094E0299F00
:1010600090011124622B8295869586958370682B5A
:1010700084EF0E94FA0364E670E080E090E00E9452
:10108000AF0281E0DF91CF91089580E0FBCF8F9296
:101090009F92AF92BF92CF92DF92EF92FF92809198
:1010A0000C038F3F09F0E9C08091FF02909100038B
:1010B0002091030331E030933D0220933C021092D3
:1010C0003B0210923A02DC01ED91FC910190F0811B
:1010D000E02D6AEF09958091FF02909100030E9434
:1010E000990343E0609103038091FF029091000314
:1010F0000E949D058091FF0290910003DC01ED911B
:10110000FC910284F385E02D09954C01990FAA0802
:10111000BB08BA2CA92C982C88248091FF029091AE
:101120000003DC01ED91FC910284F385E02D09952B
:10113000092E000CAA0BBB0B882A992AAA2ABB2AC3
:10114000BA2CA92C982C88248091FF02909100033E
:10115000DC01ED91FC910284F385E02D0995092EC7
:10116000000CAA0BBB0B6C017D01C828D928EA280A
:10117000FB2860E070E080EC9FE7C114D104B0E888
:10118000EB06F10409F470C08091100390911103F3
:10119000B0E0A0E08D2C9E2CAF2CBB24A7FCBA9411
:1011A000881A990AAA0ABB0A37E0F594E794D794FB
:1011B000C7943A95D1F7880F991FAA1FBB1FA701A3
:1011C0009601281B390B4A0B5B0BA0911203B091BF
:1011D00013030E9437126B017C015BE0F594E794E6
:1011E000D794C7945A95D1F7A5019401C501B401CC
:1011F0000E94FA119B01AC016CE05595479537951B
:1012000027956A95D1F7A0911403B09115030E9418
:1012100037129B01AC017EE0559547953795279590
:101220007A95D1F72C0D3D1D4E1D5F1D20930803AF
:101230003093090340930A0350930B03A5E0B0E0F9
:101240000E942C1260587F4F8F4F9F4F672F782F2F
:10125000892F992787FD9A950E94D31020E030E0CE
:1012600048EC52E40E943010FF90EF90DF90CF9056
:10127000BF90AF909F908F90089580910F038F3F04
:1012800021F482E591E00E948C0060E080910C03E3
:101290000E94CE018AEF0E94FC0180E00E94FC01C6
:1012A00090E0B0E0A0E0CC24D82EE92EFA2E80E029
:1012B0000E94FC01C82AFE2CED2CDC2CCC2480E002
:1012C0000E94FC01C82A61E080910C030E94CE01BB
:1012D00050CF4F925F926F927F928F929F92AF9278
:1012E000BF92CF92DF92EF92FF920E9447088DEF5C
:1012F0000E943806B0E0A0E0811520E89207A10521
:10130000B10509F4D7C08090080390900903A0901C
:101310000A03B0900B032CE2921A21E0A20AB10852
:101320006C017D013EE0CC0CDD1CEE1CFF1C3A95EF
:10133000D1F780912C0390912D03092E000CAA0B5C
:10134000BB0B44E1880F991FAA1FBB1F4A95D1F719
:10135000C81AD90AEA0AFB0AA0912E03B0912F03FA
:10136000A50194010E943712C61AD70AE80AF90AA1
:1013700080E4D80EE11CF11C6FE0F594E794D7945B
:10138000C7946A95D1F7A0912B03B0E00E942C126C
:101390002B013C017BE075946794579447947A95B0
:1013A000D1F720E8520E611C711CA09130030A2E67
:1013B000000CBB0B94010E943712EAE095958795CB
:1013C00077956795EA95D1F7A30192010E94FA11EA
:1013D0009B01AC01FAE05595479537952795FA950D
:1013E000D1F7405E5F4FA0912903B0912A030E947C
:1013F0003712705E8F4F9F4FAEE09595879577952A
:101400006795AA95D1F7A70196010E94FA116B0181
:101410007C01BFE09595879577956795BA95D1F74B
:101420009B01AC010E94FA119B01AC0187E055952C
:101430004795379527958A95D1F7A0912803B0E075
:101440000E942C1224E095958795779567952A95AB
:10145000D1F7C61AD70AE80AF90AF7FE03C0C12C69
:10146000D12C7601C701B60161307105810529E1F2
:10147000920724F060E070E080E099E12CE095951F
:101480008795779567952A95D1F70E94D31020E02C
:1014900030E040E85AE30E948811FF90EF90DF901F
:1014A000CF90BF90AF909F908F907F906F905F9004
:1014B0004F90089560E070E080EC9FE7EECFFB0175
:1014C00001900020E9F73197AF01461B570BDC0173
:1014D000ED91FC910280F381E02D09948F929F920F
:1014E000AF92BF92EF92FF920F931F93CF93DF9330
:1014F000CDB7DEB7A1970FB6F894DEBF0FBECDBF54
:101500007C01FA01CB0119A2223008F42AE08E01F5
:101510000F5D1F4F822E912CB12CA12CBF01A50174
:1015200094010E940A12F901CA016A300CF5605D4B
:10153000D8016E938D01232B242B252B79F790E076
:1015400080E0109721F0BD01C7010E945F0AA196BB
:101550000FB6F894DEBF0FBECDBFDF91CF911F91C4
:101560000F91FF90EF90BF90AF909F908F90089554
:10157000695CDECF2F923F924F925F926F927F9283
:101580008F929F92AF92BF92CF92DF92EF92FF9293
:101590001F93CF93DF93EC016A017B01722EAB01A5
:1015A0009601CB01B6010E94F51160E371E0811153
:1015B00026C046015701E894B7F82FEF3FEF4FE7F9
:1015C0005FE7C501B4010E94F51181110CC02FEF36
:1015D0003FEF4FE75FE7C501B4010E942B1064E3C2
:1015E00071E0181664F02FEF3FEF4FE75FE4C7019B
:1015F000B6010E9483111816B4F468E371E0CE01BD
:10160000DF91CF911F91FF90EF90DF90CF90BF902F
:10161000AF909F908F907F906F905F904F903F9092
:101620002F900C945F0A2FEF3FEF4FE75FECC7015D
:10163000B6010E942B1087FDE0CF20E030E0A90129
:10164000C701B6010E942B10312C212C87FF09C045
:101650006DE2CE010E9491001C01F7FAF094F7F8B8
:10166000F09410E060E070E080E09FE3711641F0DC
:1016700020E030E040E251E40E9430101F5FF6CFDE
:10168000A70196010E94BF0F2B013C010E94A210EE
:101690004B015C012AE0BC01A401CE010E946E0A4C
:1016A0007C01E20CF31C1123C1F1C501B4010E94BD
:1016B000D1109B01AC01C301B2010E94BE0F4B01CE
:1016C0005C016EE2CE010E949100E80EF91E1150FD
:1016D00020F120E030E040E251E4C501B4010E9475
:1016E00088112B013C010E94A2104B01B12CA12CAE
:1016F0002AE0B501A401CE010E946E0AE80EF91E8F
:10170000C501B4010E94D1109B01AC01C301B2011B
:101710000E94BE0F4B015C01DACFC701DF91CF9170
:101720001F91FF90EF90DF90CF90BF90AF909F9070
:101730008F907F906F905F904F903F902F90089583
:10174000CF93DF93AB01BC0122E08EE392E00E94D5
:10175000BA0AEC016CE371E08EE392E00E945F0A4A
:101760008C0F9D1FDF91CF9108951F920F920FB69E
:101770000F9211242F933F934F935F936F937F9317
:101780008F939F93AF93BF93EF93FF938EE392E07A
:101790000E941601FF91EF91BF91AF919F918F91A0
:1017A0007F916F915F914F913F912F910F900FBE5D
:1017B0000F901F9018951F920F920FB60F92112441
:1017C0002F938F939F93EF93FF93E0914E02F091AD
:1017D0004F028081E0915402F091550282FD1BC0BE
:1017E0009081809157028F5F8F73209158028217EA
:1017F00041F0E0915702F0E0E25CFD4F958F80935D
:101800005702FF91EF919F918F912F910F900FBEF3
:101810000F901F9018958081F4CF1F920F920FB6F2
:101820000F9211242F933F938F939F93AF93BF9366
:101830008091200290912102A0912202B091230276
:1018400030911F0223E0230F2D3758F50196A11D7B
:10185000B11D20931F028093200290932102A09338
:101860002202B09323028091240290912502A0913C
:101870002602B09127020196A11DB11D809324027A
:1018800090932502A0932602B0932702BF91AF91B7
:101890009F918F913F912F910F900FBE0F901F90AE
:1018A000189526E8230F0296A11DB11DD2CF1F92D5
:1018B0000F920FB60F9211242F933F934F935F9384
:1018C0006F937F938F939F93AF93BF93EF93FF9308
:1018D0008091B900887F803609F44AC0F0F58832DB
:1018E00009F4A7C018F5803109F49BC0B8F4882327
:1018F00009F4F9C0883009F494C0FF91EF91BF91C9
:10190000AF919F918F917F916F915F914F913F9197
:101910002F910F900FBE0F901F901895883109F4EA
:1019200088C0803251F78093FB0114C0803409F4E1
:101930009DC040F48033B9F38833F9F68093FB01FE
:1019400085ECB0C0803509F485C0883509F496C0AF
:10195000883499F60E94E202D0CF883909F48CC00D
:1019600038F5883729F050F4883611F0803729F699
:1019700083E0809337021092FA0157C0883809F447
:101980007BC0803919F0803809F0B7CF8091FA0117
:10199000803208F071C0E091FA0181E08E0F8093EF
:1019A000FA018091BB00F0E0E652FE4F80833DC01B
:1019B000803B39F0E0F4803A09F479C0883A09F0C4
:1019C0009CCF84E0809337021092D9011092D80105
:1019D000E0913302F091340209958091D801811190
:1019E0000FC081E08093D8011092B80109C0803CFB
:1019F00009F4A6CF883C09F4A3CF883B09F07DCF3A
:101A0000E091D90181E08E0F8093D901F0E0E85494
:101A1000FE4F80818093BB009091D9018091D801C5
:101A200029C080911E028093BB0085EC8093BC008E
:101A300064CF90911D0280911C02981758F5E09197
:101A40001D0281E08E0F80931D02F0E0E450FE4FF6
:101A50008081E9CFE0911D0281E08E0F80931D020D
:101A60008091BB00F0E0E450FE4F808390911D0216
:101A700080911C029817C8F285E8D8CFE0911D022A
:101A800081E08E0F80931D028091BB00F0E0E45056
:101A9000FE4F80838091360281115CCF81E080937C
:101AA000350284EA8093BC001092370226CF85EC81
:101AB0008093BC00109237028091FA01803230F49A
:101AC000E091FA01F0E0E652FE4F10826091FA01D7
:101AD00070E0E0913102F09132028AED91E00995D7
:101AE0001092FA010ACF1092FB0134CFEEE3F2E03C
:101AF0001382128288EE93E0A0E0B0E084839583A5
:101B0000A683B78324E031E03183208325EC30E0E5
:101B10003587248724EC30E03787268720EC30E0B7
:101B2000318B208B21EC30E0338B228B22EC30E0A8
:101B3000358B248B26EC30E0378B268B118E128E62
:101B4000138E148EEBEDF2E0138212828483958360
:101B5000A683B78386E191E091838083EFEFF2E083
:101B60008FEF858786878787808BE7EEF2E0138289
:101B7000128228E231E03183208397E094838583C9
:101B800086E0868385E0878384E0808783E08187A1
:101B900082E082871386148615861686178661E092
:101BA00080E10C94E404789484B5826084BD84B5AB
:101BB000816084BD85B5826085BD85B5816085BD48
:101BC00080916E00816080936E0010928100809100
:101BD0008100826080938100809181008160809388
:101BE0008100809180008160809380008091B100AD
:101BF00084608093B1008091B00081608093B000D8
:101C000080917A00846080937A0080917A0082606B
:101C100080937A0080917A00816080937A0080912D
:101C20007A00806880937A001092C100E0914E02A1
:101C3000F0914F0282E08083E0914A02F0914B02E2
:101C40001082E0914C02F0914D028FEC8083109253
:101C50005602E0915202F091530286E08083E091B7
:101C60005002F0915102808180618083E0915002A6
:101C7000F0915102808188608083E0915002F09160
:101C80005102808180688083E0915002F09151027E
:101C900080818F7D808361E088E00E94590261E04D
:101CA00089E00E94590261E08AE00E94590261E0E5
:101CB0008BE00E94590261E088E00E94CE0161E061
:101CC00089E00E94CE0161E08AE00E94CE0161E0DD
:101CD0008BE00E94CE0164E084E10E94E40487E787
:101CE000809303038BED92E0909300038093FF02B7
:101CF0000E94AB06882309F42DC110E4C0E0D0E0B7
:101D000085E6E82EF12C10937C0080917A008064A7
:101D100080937A0080917A0086FDFCCF80917800D4
:101D200060917900762F682F072E000C880B990B95
:101D30000E94D31020912C0230912D0240912E024E
:101D400050912F020E94BF0F4B015C0180922C0228
:101D500090922D02A0922E02B0922F0261E070E0CC
:101D600080E090E00E94AF0281E0E81AF10859F6A5
:101D700020E030E048EC52E4C501B4010E9430108C
:101D800060932C0270932D0280932E0290932F0269
:101D90000E9447080E94A00B0E9469090E94A00BA4
:101DA00060912C0270912D0280912E0290912F0251
:101DB0000E94A00B80E00E94890560E671E087EE3A
:101DC00092E00E945F0A0E944708AB01BC0122E03A
:101DD00087EE92E00E94BA0A66E771E087EE92E031
:101DE0000E945F0A6FED87EE92E00E94910067E625
:101DF00071E087EE92E00E945F0A81E00E9489050F
:101E000069E671E087EE92E00E945F0A0E9469092C
:101E1000AB01BC0122E087EE92E00E94BA0A66E7BD
:101E200071E087EE92E00E945F0A6FE671E087EE54
:101E300092E00E945F0A82E00E94890561E771E0FA
:101E400087EE92E00E945F0A40912C0250912D0291
:101E500060912E0270912F0222E087EE92E00E94A4
:101E6000BA0A83E00E948905C0902802D090290216
:101E70000D2C000CEE08FF082AE0B701A601F7FEC2
:101E80000DC06DE287EE92E00E9491004427552735
:101E9000BA014C195D096E097F092AE087EE92E0CC
:101EA0000E946E0A8EE392E00E94F60097FD41C008
:101EB0008EE392E00E94D40090932902809328023E
:101EC0008EE392E00E94D40090932B0280932A022A
:101ED0000E9447086B017C016091280270912902E1
:101EE000072E000C880B990B0E94D3109B01AC01AC
:101EF000C701B6010E94831160E087FF17C00E94EE
:101F000047086B017C0160912A0270912B02072E19
:101F1000000C880B990B0E94D3109B01AC01C701E8
:101F2000B6010E942B10181624F061E088E00E9490
:101F3000CE0168EE73E080E090E00E94AF0220974F
:101F400009F4DECE0E940201882309F4D9CE0E9452
:101F50000000D6CE86E7809303030E94AB06811172
:101F6000CCCE6FE371E08EE392E00E945F0A6CE3F7
:101F700071E08EE392E00E945F0AFFCF5058BB27CA
:101F8000AA270E94D60F0C9449110E943B1138F0E9
:101F90000E94421120F039F49F3F19F426F40C946A
:101FA00038110EF4E095E7FB0C943211E92F0E94F2
:101FB0005A1158F3BA17620773078407950720F080
:101FC00079F4A6F50C947C110EF4E0950B2EBA2F43
:101FD000A02D0B01B90190010C01CA01A00111242F
:101FE000FF27591B99F0593F50F4503E68F11A16DB
:101FF000F040A22F232F342F4427585FF3CF46956C
:1020000037952795A795F0405395C9F77EF41F168D
:10201000BA0B620B730B840BBAF09150A1F0FF0F57
:10202000BB1F661F771F881FC2F70EC0BA0F621F43
:10203000731F841F48F4879577956795B795F79533
:102040009E3F08F0B0CF9395880F08F09927EE0FC8
:102050009795879508950E940E1108F481E00895E0
:102060000E9444100C9449110E94421158F00E94A1
:102070003B1140F029F45F3F29F00C9432115111CB
:102080000C947D110C9438110E945A1168F3992315
:10209000B1F3552391F3951B550BBB27AA27621764
:1020A0007307840738F09F5F5F4F220F331F441F71
:1020B000AA1FA9F335D00E2E3AF0E0E832D09150A5
:1020C0005040E695001CCAF72BD0FE2F29D0660F92
:1020D000771F881FBB1F261737074807AB07B0E8D5
:1020E00009F0BB0B802DBF01FF2793585F4F3AF0DB
:1020F0009E3F510578F00C9432110C947D115F3F96
:10210000E4F3983ED4F3869577956795B795F79560
:102110009F5FC9F7880F911D9695879597F9089548
:10212000E1E0660F771F881FBB1F621773078407E4
:10213000BA0720F0621B730B840BBA0BEE1F88F7F3
:10214000E09508950E94621188F09F5798F0B92F8A
:102150009927B751B0F0E1F0660F771F881F991FDC
:102160001AF0BA95C9F714C0B13091F00E947C11F1
:10217000B1E008950C947C11672F782F8827B85F01
:1021800039F0B93FCCF3869577956795B395D9F734
:102190003EF490958095709561957F4F8F4F9F4F3E
:1021A0000895E89409C097FB3EF49095809570954A
:1021B00061957F4F8F4F9F4F9923A9F0F92F96E993
:1021C000BB279395F695879577956795B795F11108
:1021D000F8CFFAF4BB0F11F460FF1BC06F5F7F4FA5
:1021E0008F4F9F4F16C0882311F096E911C07723B7
:1021F00021F09EE8872F762F05C0662371F096E8C0
:10220000862F70E060E02AF09A95660F771F881F8E
:10221000DAF7880F9695879597F90895990F000832
:10222000550FAA0BE0E8FEEF16161706E807F907A8
:10223000C0F012161306E407F50798F0621B730B43
:10224000840B950B39F40A2661F0232B242B252BC4
:1022500021F408950A2609F4A140A6958FEF811D67
:10226000811D089597F99F6780E870E060E0089508
:102270009FEF80EC089500240A941616170618069E
:102280000906089500240A9412161306140605067A
:102290000895092E0394000C11F4882352F0BB0F0B
:1022A00040F4BF2B11F460FF04C06F5F7F4F8F4F6E
:1022B0009F4F089557FD9058440F551F59F05F3FA9
:1022C00071F04795880F97FB991F61F09F3F79F058
:1022D00087950895121613061406551FF2CF4695DA
:1022E000F1DF08C0161617061806991FF1CF86955C
:1022F0007105610508940895E894BB276627772740
:10230000CB0197F908950E940E1108F48FEF0895FC
:102310000E949B110C9449110E943B1138F00E94BD
:10232000421120F0952311F00C9432110C943811C5
:1023300011240C947D110E945A1170F3959FC1F3E2
:10234000950F50E0551F629FF001729FBB27F00D63
:10235000B11D639FAA27F00DB11DAA1F649F6627B8
:10236000B00DA11D661F829F2227B00DA11D621F07
:10237000739FB00DA11D621F839FA00D611D221FC1
:10238000749F3327A00D611D231F849F600D211DA5
:10239000822F762F6A2F11249F5750409AF0F1F028
:1023A00088234AF0EE0FFF1FBB1F661F771F881F91
:1023B00091505040A9F79E3F510580F00C94321186
:1023C0000C947D115F3FE4F3983ED4F386957795A6
:1023D0006795B795F795E7959F5FC1F7FE2B880F37
:1023E000911D9695879597F908950E940E11880B77
:1023F000990B0895DB018F939F930E942C12BF913C
:10240000AF91A29F800D911DA39F900DB29F900D43
:1024100011240895A1E21A2EAA1BBB1BFD010DC0B9
:10242000AA1FBB1FEE1FFF1FA217B307E407F50784
:1024300020F0A21BB30BE40BF50B661F771F881F60
:10244000991F1A9469F760957095809590959B01F6
:10245000AC01BD01CF0108950E944512A59F900DCA
:10246000B49F900DA49F800D911D11240895B7FF76
:102470000C942C120E942C12821B930B0895EE0FC9
:10248000FF1F0590F491E02D0994A29FB001B39F26
:10249000C001A39F700D811D1124911DB29F700D6D
:0C24A000811D1124911D0895F894FFCFB8
:1024AC000000000038019800C5008501F600D4003A
:1024BC00E800000000006A033D03F6031303360333
:1024CC00230314030000000097059800F603E102B3
:1024DC006E616E00696E66006F7666000D0A0045CF
:1024EC0072726F7221204E6F20424D502053656ED8
:1024FC00736F7220446574656374656421212100D7
:10250C0054656D703A2000430048756D3A200025E3
:08251C0000536F696C3A2000C6
:00000001FF
