:100000000C9463000C948B000C948B000C948B006C
:100010000C948B000C948B000C948B000C948B0034
:100020000C948B000C948B000C948B000C948B0024
:100030000C948B000C948B000C948B000C948B0014
:100040000C940E0C0C948B000C94DC0B0C94B60BE3
:100050000C948B000C948B000C948B000C948B00F4
:100060000C94580C0C948B00000000002500280014
:100070002B0000000000240027002A0000000000E0
:1000800023002600290004040404040404040202DA
:100090000202020203030303030301020408102007
:1000A0004080010204081020010204081020000012
:1000B0000008000201000003040700000000000027
:1000C0000000770D3C1011241FBECFEFD8E0DEBF3B
:1000D000CDBF23E0A8E8B1E001C01D92A335B2076F
:1000E000E1F711E0A0E0B1E0ECE1FAE202C0059036
:1000F0000D92A838B107D9F710E0C2E6D0E004C0ED
:100100002197FE010E940913C136D107C9F70E9449
:10011000460E0C9401150C9400008CBD9DBD0895F5
:1001200008950895DC01ED91FC910190F081E02D9E
:100130000994AF92BF92CF92DF92EF92FF920F930A
:100140001F93CF93DF936C017B018B01040F151F6D
:10015000EB015E01AE18BF08C017D10759F06991D5
:10016000D601ED91FC910190F081E02DC601099539
:10017000892B79F7C501DF91CF911F910F91FF90E6
:10018000EF90DF90CF90BF90AF900895FC01538D1A
:10019000448D252F30E0842F90E0821B930B541761
:1001A00010F0CF96089501970895FC01918D828DEE
:1001B000981761F0A28DAE0FBF2FB11D5D968C9187
:1001C000928D9F5F9F73928F90E008958FEF9FEFC6
:1001D0000895FC01918D828D981731F0828DE80F82
:1001E000F11D858D90E008958FEF9FEF0895FC013C
:1001F000918D228D892F90E0805C9F4F821B910909
:100200008F739927089583E592E00E94F70021E01B
:10021000892B09F420E0822F089580E090E0892B5B
:1002200029F00E94030181110C9400000895FC0143
:10023000A48DA80FB92FB11DA35ABF4F2C91848D47
:1002400090E001968F739927848FA689B7892C93A4
:10025000A089B1898C91837080648C93938D848DF7
:10026000981306C00288F389E02D80818F7D8083FA
:100270000895EF92FF920F931F93CF93DF93EC01BA
:1002800081E0888F9B8D8C8D98131AC0E889F9893D
:10029000808185FF15C09FB7F894EE89FF89608340
:1002A000E889F98980818370806480839FBF81E0C1
:1002B00090E0DF91CF911F910F91FF90EF90089503
:1002C000F62E0B8D10E00F5F1F4F0F731127E02EDE
:1002D0008C8D8E110CC00FB607FCFACFE889F98916
:1002E000808185FFF5CFCE010E941701F1CFEB8D04
:1002F000EC0FFD2FF11DE35AFF4FF0829FB7F894EA
:100300000B8FEA89FB8980818062CFCFCF93DF9307
:10031000EC01888D8823B9F0AA89BB89E889F9891D
:100320008C9185FD03C0808186FD0DC00FB607FC52
:10033000F7CF8C9185FFF2CF808185FFEDCFCE0185
:100340000E941701E9CFDF91CF910895833081F0AA
:1003500028F4813099F08230A9F008958730A9F00F
:100360008830C9F08430B1F4809180008F7D03C063
:10037000809180008F7780938000089584B58F7777
:1003800084BD089584B58F7DFBCF8091B0008F77B9
:100390008093B00008958091B0008F7DF9CF1F93B6
:1003A000CF93DF93282F30E0F901E255FF4F84917E
:1003B000F901E656FF4FD491F901EA57FF4FC49176
:1003C000CC23A9F0162F81110E94A601EC2FF0E09A
:1003D000EE0FFF1FE859FF4FA591B4918FB7F89426
:1003E000EC91111108C0D095DE23DC938FBFDF9113
:1003F000CF911F910895DE2BF8CFCF92DF92EF922D
:10040000FF920F931F93CF93DF9390912A039F3F07
:1004100081F48EBD00000DB407FEFDCFFEB48F2D1C
:10042000DF91CF911F910F91FF90EF90DF90CF90D0
:100430000895D82EF12CC7E0D0E001E010E0FF0CC9
:1004400060E080912A030E94CF01B8010C2E01C008
:10045000660F0A94EAF76D21809128030E94CF016C
:1004600061E080912A030E94CF012091290330E0AE
:10047000F901E255FF4F8491F901E656FF4FE490F0
:10048000F901EA57FF4FC490CC2081F081110E94FE
:10049000A601EC2DF0E0EE0FFF1FE458FF4FA591F1
:1004A000B491EC91EE2211F06894F0F8219708F0E5
:1004B000C6CFB5CFCF93DF9390E0FC01E656FF4F58
:1004C00024918A579F4FFC0184918823D1F090E0BA
:1004D000880F991FFC01EE58FF4FA591B491FC01C4
:1004E000E859FF4FC591D49161110EC09FB7F894A0
:1004F0008C91E22FE0958E238C932881E223E88370
:100500009FBFDF91CF9108958FB7F894EC91E22BC4
:10051000EC938FBFF6CF3FB7F8948091340290915F
:100520003502A0913602B091370226B5A89B05C0CE
:100530002F3F19F00196A11DB11D3FBFBA2FA92F62
:10054000982F8827BC01CD01620F711D811D911D5F
:1005500042E0660F771F881F991F4A95D1F70895CB
:100560008F929F92AF92BF92CF92DF92EF92FF92C3
:100570004B015C010E948B026B017C010E948B028B
:100580006C197D098E099F09683E734081059105AC
:10059000A8F321E0821A9108A108B10888EEC80EDC
:1005A00083E0D81EE11CF11C81149104A104B10464
:1005B00029F7FF90EF90DF90CF90BF90AF909F9082
:1005C0008F900895089585ED8093BC008091BC00C4
:1005D00084FDFCCF10924C0208952091E801260F73
:1005E0003327331F21323105ECF420914C02FC01FA
:1005F00090E080E0243069F082E00895A091E80165
:100600002191AC0148535E4FA40FB52FB11D2C931F
:100610000196861798F38091E801680F6093E801CE
:1006200080E0089581E008950895E0914E02809160
:100630004D02E81730F4F0E0E855FE4F808190E07D
:1006400008958FEF9FEF089590914E0280914D0293
:100650002FEF3FEF981748F4E92FF0E0E855FE4FF1
:10066000208130E09F5F90934E02C90108958091F0
:100670004D0290914E02891B990B0895CF92DF9203
:10068000EF92FF920F931F93CF93DF937C01CB01E7
:100690008A0120915202222389F0EB016B01C40EE2
:1006A000D51ECC15DD0569F06991D701ED91FC915E
:1006B0000190F081E02DC7010995F3CF642F0E94CE
:1006C000ED02C801DF91CF911F910F91FF90EF9044
:1006D000DF90CF900895CF93DF931F92CDB7DEB711
:1006E0006983209152022223F9F020914F02203297
:1006F00058F021E030E0FC013383228390E080E079
:100700000F90DF91CF91089580915002E82FF0E093
:10071000E857FE4F998190838F5F809350028093BA
:100720004F0281E090E0ECCF61E0CE0101960E94A3
:10073000ED02F7CF20914F0281E0213208F044C052
:1007400080914C028111FCCF8091510292E09093F4
:100750004C0291E090934B029FEF90930B0210920A
:100760002D0220932C02A8E8B1E0ECE0F2E090E04A
:10077000291331C010922E0290912E02880F892BDE
:1007800080932E0280914A02813049F510924A02EC
:1007900080912E028093BB008091BC0083FDF8CF36
:1007A00085EC8093BC0080914C028230E1F3809113
:1007B0000B028F3FB1F080910B028032A1F080914B
:1007C0000B02803391F084E01092500210924F029D
:1007D0001092520208953D9131939F5FC9CF85EEEB
:1007E000E0CF80E0F1CF82E0EFCF83E0EDCF90E08B
:1007F00080E008950895CF93DF93D82FC62F80917E
:1008000027038F3F59F580911A0390911B03209184
:100810001E0331E030935202209351021092500295
:1008200010924F02DC01ED91FC910190F081E02DDE
:100830006D2F099580911A0390911B03DC01ED91B6
:10084000FC910190F081E02D6C2F099580911A03A5
:1008500090911B03DF91CF910C949A0380912A030E
:100860008F3F21F482E591E00E948D0060E080914D
:1008700027030E94CF018D2F8F770E94FD018C2FBF
:100880000E94FD0161E080912703DF91CF910C94DC
:10089000CF01CF93DF93EC0160E08E810E94CF0106
:1008A00061E08E810E94CF0160E08E810E94CF01C5
:1008B0008BE891E00197F1F7DF91CF910895CF9206
:1008C000DF92EF92FF920F931F93CF93DF936C0110
:1008D0007C0187E0E80EF11CD0E0C0E0062F10E0BC
:1008E000B8010C2E02C0759567950A94E2F7617005
:1008F000F70181917F010E94CF012196C430D1057B
:1009000079F7C601DF91CF911F910F91FF90EF9082
:10091000DF90CF900C944904CF92DF92EF92FF9238
:100920000F931F93CF93DF93EC01F62E642F8C81EE
:100930000E94CF018D818F3F19F060E00E94CF01AE
:100940000F2D10E08F8584FF25C06E0187E0C80E53
:10095000D11CF12CE12CB8010E2C02C075956795C5
:100960000A94E2F76170F60181916F010E94CF0154
:10097000FFEFEF1AFF0A88E0E816F10461F7CE01F5
:10098000DF91CF911F910F91FF90EF90DF90CF906B
:100990000C944904B80184E0759567958A95E1F750
:1009A000CE010E945F046F2DCE01DF91CF911F9188
:1009B0000F91FF90EF90DF90CF900C945F0440E098
:1009C000682F8CEF92E00C948C04CF93DF9361300E
:1009D00029F090910B03986090930B0360930F03A1
:1009E0001092100390E49093110380931203805CA3
:1009F0008093130361E0809100030E945A0280916A
:100A000001038F3F19F061E00E945A0261E080917A
:100A100002030E945A02CCEFD2E09E012C5F3240CA
:100A200080910B0384FD0BC084E090E02196281791
:100A3000390744F461E08E810E945A02EECF88E0CB
:100A400090E0F4CF8BE39DE00197F1F760E08091B7
:100A500000030E94CF0160E0809102030E94CF0159
:100A6000809101038F3F19F060E00E94CF018091D7
:100A70000B0384FD39C063E08CEF92E00E945F04B9
:100A8000CBE4D6E4CE010197F1F763E08CEF92E07E
:100A90000E945F042197F1F763E08CEF92E00E94DF
:100AA0005F0483E592E00197F1F762E08CEF92E05A
:100AB0000E945F0480910B0380620E94DF0484E047
:100AC00080930C038CE00E94DF0481E00E94DF042D
:100AD0008BE39FE10197F1F782E080930D0386E0BD
:100AE000DF91CF910C94DF0480620E94DF048BE4DD
:100AF00096E40197F1F780910B0380620E94DF0476
:100B000083E592E00197F1F780910B0380620E94E8
:100B1000DF04D0CF90910F03891710F08FEF890F6A
:100B2000E82FF0E0E450FD4F848980680C94DF04E6
:100B300041E00E948C0481E090E0089580914C0295
:100B40008111FCCF81E080934C0280934B029FEF98
:100B500090930B0210922D02940F90932C0280938D
:100B60002E0280912E02660F682B60932E028091D8
:100B70004A02813019F510924A0280912E02809328
:100B8000BB008091BC0083FDF8CF85EC8093BC0056
:100B900080914C028130E1F380912D02841710F492
:100BA00040912D02ACE0B2E0E8EAF1E080E084138D
:100BB00007C010924E0280934D02089585EEE6CF55
:100BC0009D9191938F5FF3CF8F929F92AF92BF923F
:100BD000CF92DF92EF92FF92809127038F3F09F02F
:100BE000E9C080911A0390911B0320911E0331E00C
:100BF00030935202209351021092500210924F02F1
:100C0000DC01ED91FC910190F081E02D6AEF0995F6
:100C100080911A0390911B030E949A0343E0609114
:100C20001E0380911A0390911B030E949E058091E0
:100C30001A0390911B03DC01ED91FC910284F38572
:100C4000E02D09954C01990FAA08BB08BA2CA92CD4
:100C5000982C882480911A0390911B03DC01ED915C
:100C6000FC910284F385E02D0995092E000CAA0B56
:100C7000BB0B882A992AAA2ABB2ABA2CA92C982C01
:100C8000882480911A0390911B03DC01ED91FC9163
:100C90000284F385E02D0995092E000CAA0BBB0BED
:100CA0006C017D01C828D928EA28FB2860E070E0A3
:100CB00080EC9FE7C114D104B0E8EB06F10409F41D
:100CC00070C080912B0390912C03B0E0A0E08D2C9C
:100CD0009E2CAF2CBB24A7FCBA94881A990AAA0AA6
:100CE000BB0A37E0F594E794D794C7943A95D1F7C7
:100CF000880F991FAA1FBB1FA7019601281B390B3C
:100D00004A0B5B0BA0912D03B0912E030E9401139F
:100D10006B017C015BE0F594E794D794C7945A95F6
:100D2000D1F7A5019401C501B4010E94CF129B0126
:100D3000AC016CE055954795379527956A95D1F7A5
:100D4000A0912F03B09130030E9401139B01AC01CD
:100D50007EE055954795379527957A95D1F72C0DD7
:100D60003D1D4E1D5F1D20932303309324034093AC
:100D7000250350932603A5E0B0E00E946611605859
:100D80007F4F8F4F9F4F672F782F892F992787FD90
:100D90009A950E94491020E030E048EC52E40E940D
:100DA0002412FF90EF90DF90CF90BF90AF909F9074
:100DB0008F90089580912A038F3F21F482E591E07E
:100DC0000E948D0060E0809127030E94CF018AEF8E
:100DD0000E94FD0180E00E94FD0190E0B0E0A0E0F3
:100DE000CC24D82EE92EFA2E80E00E94FD01C82ADC
:100DF000FE2CED2CDC2CCC2480E00E94FD01C82AC6
:100E000061E0809127030E94CF0150CFCF93DF9301
:100E1000C82F809127038F3F09F046C080911A03A5
:100E200090911B0320911E0331E0309352022093D6
:100E300051021092500210924F02DC01ED91FC9190
:100E40000190F081E02D6C2F099580911A0390910B
:100E50001B030E949A0342E060911E0380911A03D3
:100E600090911B030E949E0580911A0390911B0391
:100E7000DC01ED91FC910284F385E02D0995C82FEA
:100E800080911A0390911B03DC01ED91FC91028487
:100E9000F385E02D099520E03C2FE901C82BD92BE3
:100EA000CE01DF91CF91089580912A038F3F21F4E5
:100EB00082E591E00E948D0060E0809127030E940E
:100EC000CF018C2F0E94FD0180E00E94FD01C82F00
:100ED00080E00E94FD01DC2FC82F61E08091270394
:100EE0000E94CF01DDCF4F925F926F927F928F92DF
:100EF0009F92AF92BF92CF92DF92EF92FF920E94A9
:100F0000E4058DEF0E940607B0E0A0E0811520E81F
:100F10009207A105B10509F4D7C0809023039090F2
:100F20002403A0902503B09026032CE2921A21E01E
:100F3000A20AB1086C017D013EE0CC0CDD1CEE1C68
:100F4000FF1C3A95D1F78091470390914803092EF1
:100F5000000CAA0BBB0B44E1880F991FAA1FBB1FF3
:100F60004A95D1F7C81AD90AEA0AFB0AA09149039F
:100F7000B0914A03A50194010E940113C61AD70A31
:100F8000E80AF90A80E4D80EE11CF11C6FE0F59440
:100F9000E794D794C7946A95D1F7A0914603B0E03F
:100FA0000E9466112B013C017BE075946794579475
:100FB00047947A95D1F720E8520E611C711CA091DC
:100FC0004B030A2E000CBB0B94010E940113EAE0B4
:100FD0009595879577956795EA95D1F7A301920145
:100FE0000E94CF129B01AC01FAE0559547953795C9
:100FF0002795FA95D1F7405E5F4FA0914403B091D9
:1010000045030E940113705E8F4F9F4FAEE0959590
:10101000879577956795AA95D1F7A70196010E94C4
:10102000CF126B017C01BFE0959587957795679509
:10103000BA95D1F79B01AC010E94CF129B01AC0184
:1010400087E055954795379527958A95D1F7A091D3
:101050004303B0E00E94661124E09595879577954B
:1010600067952A95D1F7C61AD70AE80AF90AF7FE52
:1010700003C0C12CD12C7601C701B60161307105C6
:10108000810529E1920724F060E070E080E099E1B9
:101090002CE095958795779567952A95D1F70E94CD
:1010A000491020E030E040E85AE30E94A810FF9089
:1010B000EF90DF90CF90BF90AF909F908F907F90F8
:1010C0006F905F904F90089560E070E080EC9FE734
:1010D000EECF0E9406079827892798270895CF9377
:1010E000C82F809127038F3FA9F580911A03909113
:1010F0001B0320911E0331E03093520220935102D2
:101100001092500210924F02DC01ED91FC9101907F
:10111000F081E02D6C2F099580911A0390911B03AB
:101120000E949A0341E060911E0380911A039091FE
:101130001B030E949E0580911A0390911B03DC0102
:10114000ED91FC910284F385E02D0995C82F8C2F39
:10115000CF91089580912A038F3F21F482E591E099
:101160000E948D0060E0809127030E94CF018C2FA8
:101170000E94FD0180E00E94FD01C82F61E0809186
:1011800027030E94CF01E3CFCF93DF938091270302
:101190008F3F09F05BC010924E0210924D021092E8
:1011A000500210924F0210924C0281E080934B0249
:1011B00010924A0261E082E10E94CF0161E083E186
:1011C0000E94CF018091B9008E7F8093B9008091F9
:1011D000B9008D7F8093B90088E48093B80085E4DE
:1011E0008093BC0080E990E090934902809348028C
:1011F00081E990E0909347028093460280ED0E943F
:101200006F0890E0B0E0A0E080931F03909320036C
:10121000A0932103B093220380369105A105B10567
:1012200009F04CC166EB80EE0E94FB036CE271E0BA
:1012300080E090E00E94B00283EF0E946F0880FF80
:1012400054C064E670E080E090E0F4CF61E00E947A
:10125000CF0161E0809127030E945A0280912A0306
:101260008F3F09F034C0CFB7F894809145028111C7
:1012700027C0E0E9F0E08491E4EAF0E09491E82FFF
:10128000F0E0EE0FFF1FEE58FF4FA591B491EC91E7
:10129000E92321F461E08AE00E94CF0161E08AE065
:1012A0000E945A028CB580618CBD8CB580648CBD67
:1012B00061E08DE00E945A0261E08BE00E945A02D8
:1012C000809145028F5F80934502CFBF97CF61E049
:1012D0000E945A0261E0809128030E945A0260E055
:1012E000809129030E945A0289CF88E80E946908E8
:1012F00090932C0380932B038AE80E9469089093B3
:101300002E0380932D038CE80E946908909330038C
:1013100080932F038EE80E94690890933203809394
:10132000310380E90E94690890933403809333036A
:1013300082E90E946908909336038093350384E91B
:101340000E946908909338038093370386E90E94CE
:10135000690890933A038093390388E90E946908E9
:1013600090933C0380933B038AE90E946908909321
:101370003E0380933D038CE90E94690890934003EB
:1013800080933F038EE90E94690890934203809303
:10139000410381EA0E946F088093430381EE0E941B
:1013A0006908909345038093440383EE0E946F087D
:1013B0008093460384EE0E946F08C82F85EE0E943A
:1013C0006F0890E1C99F900111248F70282B3093F2
:1013D00048032093470386EE0E946F08C82F85EECE
:1013E0000E946F0890E1C99FE001112490E024E081
:1013F000959587952A95E1F78C2B9D2B90934A0321
:101400008093490387EE0E946F0880934B038DEE13
:1014100080934D0380914E038F71806A80934E03B9
:1014200080914C03807C80934C0360E084EF0E94A9
:10143000FB0360914E0362956695677082EF0E9490
:10144000FB0380914C03682F677090E2699FB001A5
:101450001124282F269526952695277094E0299FFC
:1014600090011124622B87FB882780F9682B85EF78
:101470000E94FB0380914D03682F677090E2699F83
:10148000B0011124282F269526952695277094E0E3
:10149000299F90011124622B8295869586958370F1
:1014A000682B84EF0E94FB0364E670E080E090E02C
:1014B0000E94B00281E0DF91CF91089580E0FBCFE0
:1014C000FB0101900020E9F73197AF01461B570B54
:1014D000DC01ED91FC910280F381E02D09948F9263
:1014E0009F92AF92BF92EF92FF920F931F93CF9371
:1014F000DF93CDB7DEB7A1970FB6F894DEBF0FBE6E
:10150000CDBF7C01FA01CB0119A2223008F42AE0F8
:101510008E010F5D1F4F822E912CB12CA12CBF018B
:10152000A50194010E94DF12F901CA016A300CF58D
:10153000605DD8016E938D01232B242B252B79F729
:1015400090E080E0109721F0BD01C7010E94600A81
:10155000A1960FB6F894DEBF0FBECDBFDF91CF913D
:101560001F910F91FF90EF90BF90AF909F908F9041
:101570000895695CDECF2F923F924F925F926F92F7
:101580007F928F929F92AF92BF92CF92DF92EF9213
:10159000FF921F93CF93DF93EC016A017B01722EC0
:1015A000AB019601CB01B6010E94CA1266E371E05D
:1015B000811126C046015701E894B7F82FEF3FEF9D
:1015C0004FE75FE7C501B4010E94CA1281110CC048
:1015D0002FEF3FEF4FE75FE7C501B4010E944210D4
:1015E0006AE371E0181664F02FEF3FEF4FE75FE416
:1015F000C701B6010E94C5121816B4F46EE371E07B
:10160000CE01DF91CF911F91FF90EF90DF90CF90AF
:10161000BF90AF909F908F907F906F905F904F9012
:101620003F902F900C94600A2FEF3FEF4FE75FEC55
:10163000C701B6010E94421087FDE0CF20E030E0F4
:10164000A901C701B6010E944210312C212C87FF4D
:1016500009C06DE2CE010E9492001C01F7FAF094DD
:10166000F7F8F09410E060E070E080E09FE371161E
:1016700041F020E030E040E251E40E9424121F5F7C
:10168000F6CFA70196010E94B8112B013C010E94E0
:1016900096124B015C012AE0BC01A401CE010E941C
:1016A0006F0A7C01E20CF31C1123C1F1C501B401E6
:1016B0000E9447109B01AC01C301B2010E94B71107
:1016C0004B015C016EE2CE010E949200E80EF91E11
:1016D000115020F120E030E040E251E4C501B401B6
:1016E0000E94A8102B013C010E9496124B01B12CC4
:1016F000A12C2AE0B501A401CE010E946F0AE80ED8
:10170000F91EC501B4010E9447109B01AC01C30141
:10171000B2010E94B7114B015C01DACFC701DF9122
:10172000CF911F91FF90EF90DF90CF90BF90AF903F
:101730009F908F907F906F905F904F903F902F90F1
:101740000895CF93DF93AB01BC0122E083E592E0E3
:101750000E94BB0AEC0162E471E083E592E00E9422
:10176000600A8C0F9D1FDF91CF9108951F920F92F9
:101770000FB60F9211242F933F934F935F936F9364
:101780007F938F939F93AF93BF93EF93FF9383E5E3
:1017900092E00E941701FF91EF91BF91AF919F914D
:1017A0008F917F916F915F914F913F912F910F900A
:1017B0000FBE0F901F9018951F920F920FB60F92A9
:1017C00011242F938F939F93EF93FF93E0916302E4
:1017D000F09164028081E0916902F0916A0282FDD9
:1017E0001BC0908180916C028F5F8F7320916D027E
:1017F000821741F0E0916C02F0E0ED5AFD4F958FB9
:1018000080936C02FF91EF919F918F912F910F9098
:101810000FBE0F901F9018958081F4CF1F920F92EA
:101820000FB60F9211242F933F938F939F93AF93F3
:10183000BF938091300290913102A0913202B09119
:10184000330230912F0223E0230F2D3758F50196F4
:10185000A11DB11D20932F0280933002909331027D
:10186000A0933202B09333028091340290913502FA
:10187000A0913602B09137020196A11DB11D80934F
:10188000340290933502A0933602B0933702BF9191
:10189000AF919F918F913F912F910F900FBE0F901D
:1018A0001F90189526E8230F0296A11DB11DD2CFD7
:1018B0001F920F920FB60F9211242F933F934F93C5
:1018C0005F936F937F938F939F93AF93BF93EF93A8
:1018D000FF938091B900887F803609F44AC0F0F503
:1018E000883209F4A7C018F5803109F49BC0B8F418
:1018F000882309F4F9C0883009F494C0FF91EF916E
:10190000BF91AF919F918F917F916F915F914F9117
:101910003F912F910F900FBE0F901F901895883117
:1019200009F488C0803251F780930B0214C08034D0
:1019300009F49DC040F48033B9F38833F9F68093FD
:101940000B0285ECB0C0803509F485C0883509F4F8
:1019500096C0883499F60E94E302D0CF883909F402
:101960008CC038F5883729F050F4883611F080376C
:1019700029F683E080934C0210920A0257C08838FF
:1019800009F47BC0803919F0803809F0B7CF809115
:101990000A02803208F071C0E0910A0281E08E0FE5
:1019A00080930A028091BB00F0E0E651FE4F8083F5
:1019B0003DC0803B39F0E0F4803A09F479C0883AC0
:1019C00009F09CCF84E080934C021092E9011092C0
:1019D000E801E0914802F091490209958091E801FF
:1019E00081110FC081E08093E8011092C80109C005
:1019F000803C09F4A6CF883C09F4A3CF883B09F0CA
:101A00007DCFE091E90181E08E0F8093E901F0E064
:101A1000E853FE4F80818093BB009091E901809153
:101A2000E80129C080912E028093BB0085EC809351
:101A3000BC0064CF90912D0280912C02981758F52C
:101A4000E0912D0281E08E0F80932D02F0E0E45FA3
:101A5000FD4F8081E9CFE0912D0281E08E0F8093D0
:101A60002D028091BB00F0E0E45FFD4F80839091F8
:101A70002D0280912C029817C8F285E8D8CFE0910A
:101A80002D0281E08E0F80932D028091BB00F0E04B
:101A9000E45FFD4F808380914B0281115CCF81E038
:101AA00080934A0284EA8093BC0010924C0226CFB5
:101AB00085EC8093BC0010924C0280910A02803227
:101AC00030F4E0910A02F0E0E651FE4F108260919E
:101AD0000A0270E0E0914602F09147028AEE91E03E
:101AE000099510920A020ACF10920B0234CF10927D
:101AF00056021092550288EE93E0A0E0B0E0809389
:101B0000570290935802A0935902B0935A022AE0C8
:101B100031E0309354022093530225EC30E03093AF
:101B2000600220935F0224EC30E030936202209345
:101B3000610220EC30E0309364022093630221ECD8
:101B400030E0309366022093650222EC30E030935F
:101B500068022093670226EC30E030936A022093FB
:101B6000690210926C0210926D0210926E02109235
:101B70006F021092F3021092F2028093F40290939B
:101B8000F502A093F602B093F7028CE191E09093F6
:101B9000F1028093F0028FEF809327038093280354
:101BA0008093290380932A03109215031092140343
:101BB0001092170310921603109219031092180333
:101BC00061E070E090E080E00E9434140097E9F05A
:101BD0009093150380931403109217031092160329
:101BE0002091180330911903232B11F4FC0110826A
:101BF000109219031092180364E471E080911403A9
:101C0000909115030E94FA1414C0809114039091CE
:101C10001503009711F00E94AB1310921503109258
:101C200014031092190310921803109217031092C4
:101C300016031092FF021092FE028EE291E0909342
:101C4000FD028093FC0287E0809300038FEF809376
:101C5000010386E08093020385E08093030384E020
:101C60008093040383E08093050382E0809306035E
:101C700010920703109208031092090310920A03AE
:101C800010920B0361E080E10C94E504789484B534
:101C9000826084BD84B5816084BD85B5826085BD68
:101CA00085B5816085BD80916E00816080936E00F6
:101CB00010928100809181008260809381008091E8
:101CC0008100816080938100809180008160809399
:101CD00080008091B10084608093B1008091B00059
:101CE00081608093B00080917A00846080937A0054
:101CF00080917A00826080937A0080917A0081607E
:101D000080937A0080917A00806880937A001092A4
:101D1000C100E0916302F091640282E08083E0916F
:101D20005F02F09160021082E0916102F091620224
:101D30008FEC808310926B02E0916702F091680251
:101D400086E08083E0916502F09166028081806187
:101D50008083E0916502F0916602808188608083D3
:101D6000E0916502F0916602808180688083E09155
:101D70006502F091660280818F7D808361E088E05A
:101D80000E945A0261E089E00E945A0261E08AE002
:101D90000E945A0261E08BE00E945A0261E088E0F2
:101DA0000E94CF0161E089E00E94CF0161E08AE0FA
:101DB0000E94CF0161E08BE00E94CF0164E084E1EA
:101DC0000E94E50487E780931E0380EF92E09093E2
:101DD0001B0380931A030E94C408882309F400C1DE
:101DE00080E4E82EC0E0D0E0FF24F39495E0D92E03
:101DF00005E610E0E0927C0080917A008064809398
:101E00007A0080917A0086FDFCCF80917800609105
:101E10007900762F682F072E000C880B990B0E94F3
:101E20004910209141023091420240914302509169
:101E300044020E94B8114B015C01809241029092D1
:101E40004202A0924302B092440261E070E080E05E
:101E500090E00E94B0020150110961F620E030E0EC
:101E600048EC52E4C501B4010E942412609341027F
:101E700070934202809343029093440280E00E9458
:101E80008A0566E671E08CEF92E00E94600A0E948B
:101E9000E405AB01BC0122E08CEF92E00E94BB0A9A
:101EA0006CE771E08CEF92E00E94600A6FED8CEFBE
:101EB00092E00E9492006DE671E08CEF92E00E9449
:101EC000600A81E00E948A056FE671E08CEF92E083
:101ED0000E94600A0E947307AB01BC0122E08CEFF4
:101EE00092E00E94BB0A6CE771E08CEF92E00E94E6
:101EF000600A65E771E08CEF92E00E94600A82E080
:101F00000E948A0567E771E08CEF92E00E94600A08
:101F1000409141025091420260914302709144020B
:101F200022E08CEF92E00E94BB0A83E00E948A05C7
:101F300060913B028CEF92E00E94920060913C0223
:101F40008CEF92E00E9492006EE771E08CEF92E0DD
:101F50000E94600A60913D028CEF92E00E94920024
:101F600060913E028CEF92E00E9492000E94E40594
:101F700020E030E0A9010E94C51260E087FF0AC09E
:101F80000E94E40520E030E0A9010E9442101816EA
:101F900024F061E088E00E94CF0183E592E00E9496
:101FA000F70020913A02181619060CF03EC02111D4
:101FB0003EC083E592E00E94D500909139029923BA
:101FC00071F190913802E92FF0E0E55CFD4F8E331E
:101FD000F1F080839F5F9630B8F0D0923802DDCF69
:101FE00086E780931E030E94C4088111F9CE65E440
:101FF00071E083E592E00E94600A62E471E083E5AB
:1020000092E00E94600AFFCF90933802C6CF108200
:102010001092390210923802F0923A02BECF8C33FD
:1020200009F0BBCFF0923902B8CF2223A1F00E9471
:10203000E4050E94A10B0E9473070E94A10B60910E
:1020400041027091420280914302909144020E94A9
:10205000A10B10923A0268EE73E080E090E00E94DB
:10206000B002209709F4C4CE0E940301882309F42A
:10207000BFCE0E940000BCCE809114039091150346
:102080000C94AB130E94841008F481E00895E89446
:1020900009C097FB3EF490958095709561957F4FB0
:1020A0008F4F9F4F9923A9F0F92F96E9BB2793955E
:1020B000F695879577956795B795F111F8CFFAF46E
:1020C000BB0F11F460FF1BC06F5F7F4F8F4F9F4F9F
:1020D00016C0882311F096E911C0772321F09EE8FD
:1020E000872F762F05C0662371F096E8862F70E063
:1020F00060E02AF09A95660F771F881FDAF7880F3D
:102100009695879597F90895990F0008550FAA0B92
:10211000E0E8FEEF16161706E807F907C0F01216FA
:102120001306E407F50798F0621B730B840B950BFD
:1021300039F40A2661F0232B242B252B21F4089552
:102140000A2609F4A140A6958FEF811D811D0895EF
:102150000E94BB100C942C110E941E1138F00E949A
:10216000251120F0952311F00C9415110C941B11DE
:1021700011240C9460110E943D1170F3959FC1F3DE
:10218000950F50E0551F629FF001729FBB27F00D25
:10219000B11D639FAA27F00DB11DAA1F649F66277A
:1021A000B00DA11D661F829F2227B00DA11D621FC9
:1021B000739FB00DA11D621F839FA00D611D221F83
:1021C000749F3327A00D611D231F849F600D211D67
:1021D000822F762F6A2F11249F5750409AF0F1F0EA
:1021E00088234AF0EE0FFF1FBB1F661F771F881F53
:1021F00091505040A9F79E3F510580F00C94151165
:102200000C9460115F3FE4F3983ED4F38695779584
:102210006795B795F795E7959F5FC1F7FE2B880FF8
:10222000911D9695879597F9089597F99F6780E88E
:1022300070E060E008959FEF80EC089500240A9418
:102240001616170618060906089500240A94121691
:102250001306140605060895092E0394000C11F4C4
:10226000882352F0BB0F40F4BF2B11F460FF04C071
:102270006F5F7F4F8F4F9F4F089557FD9058440FCA
:10228000551F59F05F3F71F04795880F97FB991FD5
:1022900061F09F3F79F08795089512161306140692
:1022A000551FF2CF4695F1DF08C01616170618061F
:1022B000991FF1CF86957105610508940895E894FA
:1022C000BB2766277727CB0197F908950E94A811AD
:1022D000A59F900DB49F900DA49F800D911D11247A
:1022E00008952F923F924F925F926F927F928F92BA
:1022F0009F92AF92BF92CF92DF92EF92FF920F9395
:102300001F93CF93DF93CDB7DEB7CA1BDB0B0FB69E
:10231000F894DEBF0FBECDBF09942A88398848885B
:102320005F846E847D848C849B84AA84B984C884F1
:10233000DF80EE80FD800C811B81AA81B981CE0FE8
:10234000D11D0FB6F894DEBF0FBECDBFED010895CD
:10235000A29FB001B39FC001A39F700D811D1124E6
:10236000911DB29F700D811D1124911D089550582B
:10237000BB27AA270E94CF110C942C110E941E117A
:1023800038F00E94251120F039F49F3F19F426F40B
:102390000C941B110EF4E095E7FB0C941511E92F3A
:1023A0000E943D1158F3BA17620773078407950717
:1023B00020F079F4A6F50C945F110EF4E0950B2E45
:1023C000BA2FA02D0B01B90190010C01CA01A00187
:1023D0001124FF27591B99F0593F50F4503E68F1E2
:1023E0001A16F040A22F232F342F4427585FF3CF23
:1023F000469537952795A795F0405395C9F77EF4F4
:102400001F16BA0B620B730B840BBAF09150A1F03C
:10241000FF0FBB1F661F771F881FC2F70EC0BA0FC2
:10242000621F731F841F48F4879577956795B7954A
:10243000F7959E3F08F0B0CF9395880F08F0992745
:10244000EE0F9795879508950E9438120C942C11E1
:102450000E94251158F00E941E1140F029F45F3FA0
:1024600029F00C94151151110C9460110C941B114E
:102470000E943D1168F39923B1F3552391F3951B05
:10248000550BBB27AA2762177307840738F09F5F95
:102490005F4F220F331F441FAA1FA9F335D00E2E02
:1024A0003AF0E0E832D091505040E695001CCAF76F
:1024B0002BD0FE2F29D0660F771F881FBB1F261732
:1024C00037074807AB07B0E809F0BB0B802DBF0109
:1024D000FF2793585F4F3AF09E3F510578F00C94D8
:1024E00015110C9460115F3FE4F3983ED4F3869588
:1024F00077956795B795F7959F5FC9F7880F911DF9
:102500009695879597F90895E1E0660F771F881FE4
:10251000BB1F621773078407BA0720F0621B730B97
:10252000840BBA0BEE1F88F7E09508950E944511C1
:1025300088F09F5798F0B92F9927B751B0F0E1F084
:10254000660F771F881F991F1AF0BA95C9F714C034
:10255000B13091F00E945F11B1E008950C945F11C9
:10256000672F782F8827B85F39F0B93FCCF386956D
:1025700077956795B395D9F73EF4909580957095CA
:1025800061957F4F8F4F9F4F08950E94841008F4EC
:102590008FEF08950E948410880B990B0895DB013A
:1025A0008F939F930E946611BF91AF91A29F800D60
:1025B000911DA39F900DB29F900D11240895A1E24B
:1025C0001A2EAA1BBB1BFD010DC0AA1FBB1FEE1FAD
:1025D000FF1FA217B307E407F50720F0A21BB30BF8
:1025E000E40BF50B661F771F881F991F1A9469F774
:1025F00060957095809590959B01AC01BD01CF01D0
:102600000895B7FF0C9466110E946611821B930B0C
:102610000895EE0FFF1F0590F491E02D09940F939C
:102620001F93CF93DF938230910510F482E090E006
:10263000E0915103F091520330E020E0B0E0A0E0DF
:10264000309799F42115310509F44AC0281B390B3C
:1026500024303105D8F58A819B816115710589F196
:10266000FB0193838283FE0111C04081518102816D
:10267000138148175907E0F04817590799F4109744
:1026800061F012960C93129713961C933296CF0119
:10269000DF91CF911F910F910895009351031093F3
:1026A0005203F4CF2115310551F04217530738F08A
:1026B000A901DB019A01BD01DF01F801C1CFEF01E2
:1026C000F9CF9093520380935103CDCFFE01E20FD7
:1026D000F31F819391932250310939832883D7CFF7
:1026E00020914F0330915003232B41F4209102019C
:1026F000309103013093500320934F032091000148
:10270000309101012115310541F42DB73EB74091BB
:10271000040150910501241B350BE0914F03F0910A
:102720005003E217F307A0F42E1B3F0B28173907BD
:1027300078F0AC014E5F5F4F2417350748F04E0F1D
:102740005F1F5093500340934F03819391939FCF0A
:10275000F0E0E0E09CCFCF93DF930097E9F0FC013D
:10276000329713821282A0915103B0915203ED016E
:1027700030E020E01097A1F420813181820F931F77
:1027800020914F03309150032817390709F061C099
:10279000F0935003E0934F03DF91CF910895EA0146
:1027A000CE17DF07E8F54A815B819E01411551058F
:1027B000B1F7E901FB83EA8349915991C40FD51F11
:1027C000EC17FD0761F4808191810296840F951FBB
:1027D000E90199838883828193819B838A83F0E0D6
:1027E000E0E012968D919C9113970097B9F52D9189
:1027F0003C911197CD010296820F931F20914F03B8
:10280000309150032817390739F6309751F5109257
:10281000520310925103B0935003A0934F03BCCFC7
:10282000D383C28340815181840F951FC817D90774
:1028300061F44E5F5F4F88819981480F591F518322
:1028400040838A819B81938382832115310509F01E
:10285000B0CFF0935203E09351039ECFFD01DC0112
:10286000C0CF13821282D7CFB0E0A0E0EAE3F4E158
:102870000C9473118C01009751F4CB010E940F133B
:102880008C01C801CDB7DEB7E0E10C948F11FC01DB
:10289000E60FF71F9C0122503109E217F30708F4F5
:1028A0009DC0D901CD91DC911197C617D70798F03B
:1028B000C530D10530F3CE0104978617970708F38A
:1028C000C61BD70B2297C193D1936D937C93CF01F5
:1028D0000E94AB13D6CF5B01AC1ABD0A4C018C0E23
:1028E0009D1EA0915103B0915203512C412CF12C0B
:1028F000E12C109731F580914F039091500388158A
:10290000990509F05CC04616570608F058C080913A
:10291000000190910101009741F48DB79EB740915D
:10292000040150910501841B950BE817F90708F085
:1029300055C0F0935003E0934F03F9017183608316
:10294000A0CF8D919C91119712966C90129713962F
:102950007C901397A815B90559F56C0142E0C40E97
:10296000D11CCA14DB0420F1AC014A195B09DA015D
:102970001296159780F06282738251834083D90149
:102980006D937C93E114F10471F0D7011396FC93DD
:10299000EE93129776CF22968C0F9D1FF9019183AB
:1029A0008083F301EFCFF0935203E093510369CF9B
:1029B0004816590608F42C017D01D3019ACFCB01AA
:1029C0000E940F137C01009749F0AE01B8010E94EC
:1029D000F114C8010E94AB13870153CF10E000E04F
:1029E00050CFFB01DC0102C001900D9241505040DC
:1029F000D8F70895FB01DC0101900D920020E1F76A
:102A0000089510E0C2E6D0E004C0FE010E94091360
:0C2A10002196C336D107C9F7F894FFCF18
:102A1C000000530380000000000039019900C6003B
:102A2C008601F700D500E900000000006B033E03AF
:102A3C00F703140337032403150300000000980563
:102A4C009900F703E2026E616E00696E66006F76A4
:102A5C0066000D0A004572726F7221204E6F204283
:102A6C004D502053656E736F7220446574656374AA
:102A7C0065642121210054656D703A2000430048A3
:102A8C00756D3A20002500536F696C3A2000686917
:082A9C0067682069733A00002D
:00000001FF
